:020000040800F2
:1000000000500020E1270008E9260008F526000836
:10001000FB26000801270008072700080000000051
:100020000000000000000000000000000D27000894
:1000300019270008000000002527000831270008C4
:10004000292800082928000829280008292800084C
:10005000292800082928000829280008292800083C
:10006000292800082928000829280008292800082C
:10007000292800082928000829280008292800081C
:10008000292800082928000829280008292800080C
:1000900029280008292800082928000829280008FC
:1000A00029280008292800082928000829280008EC
:1000B0003D270008292800082928000829280008C9
:1000C000292800085127000865270008292800086A
:1000D00029280008292800082928000829280008BC
:1000E0002928000829280008292800080000000005
:1000F0000000000000000000000000000000000000
:0C01000000000000000000005FF808F1A3
:10010C0010B5054C237833B9044B13B10448AFF345
:10011C0000800123237010BD180000200000000097
:10012C00F46F000808B5034B1BB103490348AFF348
:10013C00008008BD000000001C000020F46F0008C7
:10014C0080B500AF4021524802F0B6FE0346012BA9
:10015C0007D1504B1B7843F00103DAB24D4B1A70A8
:10016C0006E04C4B1B7823F00103DAB2494B1A70B2
:10017C001021474802F0A0FE0346012B07D1454B46
:10018C001B7843F00203DAB2424B1A7006E0414B83
:10019C001B7823F00203DAB23E4B1A7020213C4844
:1001AC0002F08AFE0346012B07D13A4B1B7843F031
:1001BC000403DAB2374B1A7006E0364B1B7823F087
:1001CC000403DAB2334B1A7000F070F803461A4687
:1001DC00314B1A70304B1B78002B1AD02F4B1B78DD
:1001EC00002B16D02B4B1B7803F00703DAB22C4BE9
:1001FC001A70284B1B78DB00DAB2264B1A7000F011
:10020C0065FD03461A46274B1A80244B00221A70B0
:10021C0031E0244B1B881421184600F02BFD0346BB
:10022C00002B28D01D4B01221A701A4B1B7803F09F
:10023C000703DAB21C4B1A701B4B1A78184B1B783D
:10024C009A4202D100F04CF815E0124B1B7803F0E7
:10025C000703DAB2124B1A700E4B1B78DB00DAB2C2
:10026C000C4B1A700D4B00221A7000F02FFD034638
:10027C001A460C4B1A80094B1B78002B05D0054BEA
:10028C001B78DB00DAB2034B1A7000BF80BD00BFD5
:10029C0000080140390000203A0000200000002036
:1002AC00B205002034000020B305002080B483B0D8
:1002BC0000AF0A4B1B78DB08FB71084B1B785BB259
:1002CC0003F007035AB297F9073053405BB2DBB225
:1002DC0018460C37BD4680BC704700BF3900002063
:1002EC0080B400AF124B1B7803F00103002B14BF3A
:1002FC0001230023DAB20F4B1A700D4B1B7803F05D
:10030C000203002B14BF01230023DAB20A4B1A702C
:10031C00074B1B7803F00403002B14BF01230023AD
:10032C00DAB2064B1A7000BFBD4680BC704700BFE6
:10033C00B3050020B6050020B4050020B50500204B
:10034C0080B500AFFFF7FCFE3D4B1B78002B0CD0AB
:10035C003C4B1B7883F00103DBB2002B05D0394BEF
:10036C0001221A7000F0BEF846E0374B1B78002BC8
:10037C000CD0364B1B7883F00103DBB2002B05D07D
:10038C00324B01221A7000F03FF935E0304B1B78EC
:10039C00002B24D02F4B1B78002B0CD000F096FC9C
:1003AC0003461A462C4B1A802A4B00221A702B4BF0
:1003BC0001221A7020E0294B1B78002B1CD0264BF5
:1003CC001B884FF47A71184600F054FC0346002B3E
:1003DC0012D0224B00221A7000F042F80CE01C4B99
:1003EC001B7883F00103DBB2002B05D01B4B1B7871
:1003FC00002B01D000F054F8114B1B7883F0010353
:10040C00DBB2002B02D00F4B00221A700E4B1B7864
:10041C0083F00103DBB2002B02D00C4B00221A70CC
:10042C000B4B1B7883F00103DBB2002B05D00B4B7D
:10043C0000221A70074B01221A7000BF80BD00BF4A
:10044C00B40500203B000020B50500203C00002036
:10045C00B605002001000020360000203D000020E1
:10046C0080B400AF0C4B1B78002B14BF012300236E
:10047C00DBB283F00103DBB203F00103DAB2064B0B
:10048C001A70054B1B78002B02D0044B01221A70FA
:10049C0000BFBD4680BC70474000002038000020E3
:1004AC0080B400AF0D4B1B7883F00103DBB2002B43
:1004BC0010D10B4B1B780133DAB2094B1A70084B75
:1004CC001B78062B07D9064B00221A70034B00220F
:1004DC001A7000E000BFBD4680BC70474000002091
:1004EC003800002080B500AF3F4B1B7883F0010330
:1004FC00DBB2002B76D13D4B1B78013B052B6ED824
:10050C0001A252F823F000BF2D0500084905000890
:10051C0065050008810500089D050008B90500085F
:10052C00334B1B780133DAB2314B1A70304B1B78DA
:10053C00172B49D92E4B00221A7045E02D4B1B78F6
:10054C000133DAB22B4B1A702A4B1B783B2B3DD95B
:10055C00284B00221A7039E0274B1B780133DAB292
:10056C00254B1A70244B1B78072B31D9224B0122B7
:10057C001A702DE0214B1B780133DAB21F4B1A7025
:10058C001E4B1B781F2B25D91C4B01221A7021E006
:10059C001B4B1B780133DAB2194B1A70184B1B78B2
:1005AC000C2B19D9164B01221A7015E0154B1B7820
:1005BC000133DAB2134B1A70124B1B78632B0DD923
:1005CC00104B00221A7009E000BF08E000BF06E0E3
:1005DC0000BF04E000BF02E000BF00E000BF01F07C
:1005EC0029FB00E000BF80BD400000203800002047
:1005FC00A9050020A8050020AA050020AB050020B5
:10060C00AC050020AD05002080B500AF3D4B1B783C
:10061C0083F00103DBB2002B71D13B4B1B78013B08
:10062C00052B69D801A252F823F000BF510600082F
:10063C006F0600088D060008AB060008C906000806
:10064C00E7060008314B1B78002B03D12F4B1722E8
:10065C001A7051E02D4B1B78013BDAB22B4B1A7000
:10066C004AE02B4B1B78002B03D1294B3B221A70F1
:10067C0042E0274B1B78013BDAB2254B1A703BE06A
:10068C00244B1B78012B03D1224B07221A7033E029
:10069C00204B1B78013BDAB21E4B1A702CE01E4B20
:1006AC001B78012B03D11C4B1F221A7024E01A4B10
:1006BC001B78013BDAB2184B1A701DE0174B1B78F4
:1006CC00012B03D1154B0C221A7015E0134B1B7820
:1006DC00013BDAB2114B1A700EE0114B1B78002B58
:1006EC0003D10F4B63221A7005E00D4B1B78013BB5
:1006FC00DAB20B4B1A7000BF01F09CFA00E000BF9D
:10070C0080BD00BF4000002038000020A90500205B
:10071C00A8050020AA050020AB050020AC05002090
:10072C00AD05002080B400AF024B1B781846BD46C7
:10073C0080BC70473800002080B582B000AF02F05A
:10074C006FF800F051F800F0E5F900F0C1F800F096
:10075C00F5F800F093F900F08DF81E4805F08CFDCB
:10076C0000211D4805F0E0FD1C4B01225A6300F0EE
:10077C0045FC01F0E1FA1A4B1B78FB710023BB71AD
:10078C0000F00AFCFFF7DCFD01F01AFD154B1B789D
:10079C00002B0AD0BB7983F00103DBB2002B01D014
:1007AC000123BB7100F008FBEAE70D4B1B78FA79CB
:1007BC009A4204D00A4B1B78FB710123BB71BB79A5
:1007CC00002B03D001F0D0F80023BB7100F088FAA5
:1007DC00D6E700BFA406002064060020002C0140D0
:1007EC00AA0500204000002080B590B000AF07F1B2
:1007FC00180328220021184606F0EDFB3B1D0022B1
:10080C001A605A609A60DA601A610123BB614FF476
:10081C008033FB6100233B620123BB6202237B63B9
:10082C004FF48033BB634FF4E013FB6307F1180301
:10083C00184604F0D1FE0346002B01D000F0D8FB83
:10084C000F237B600223BB600023FB604FF48063AB
:10085C003B6100237B613B1D0221184605F03CF9EE
:10086C000346002B01D000F0C3FB00BF4037BD4650
:10087C0080BD000080B500AF124B134A1A60114BBB
:10088C00124A5A600F4B00229A600E4B0022DA601B
:10089C000C4B4FF480421A610A4B00225A61094BEF
:1008AC0000229A61074B0022DA61064B00221A6281
:1008BC00044802F049FB0346002B01D000F098FBE2
:1008CC0000BF80BD1006002000580040A08601002B
:1008DC0080B500AF174B184A1A60164B4FF4827252
:1008EC005A60144B00229A60124B0022DA60114BB2
:1008FC0000221A610F4B00225A610E4B4FF400720A
:10090C009A610C4B0022DA610A4B00221A62094BE5
:10091C0000225A62074B00229A62064B0A22DA62C4
:10092C00044805F061FA0346002B01D000F060FB8F
:10093C0000BF80BDB80500200038004080B596B0DF
:10094C0000AF07F1480300221A605A609A60DA601F
:10095C0007F1400300221A605A6007F124030022B9
:10096C001A605A609A60DA601A615A619A613B1D8A
:10097C0020220021184606F02EFB3E4B3E4A1A6000
:10098C003C4B00225A603B4B00229A60394BFF22B1
:10099C00DA60384B00221A61364B00225A61354B13
:1009AC0000229A61334805F03CFC0346002B01D031
:1009BC0000F01EFB4FF48053BB6407F1480319464B
:1009CC002C4805F0B1FE0346002B01D000F010FBC3
:1009DC00284805F074FC0346002B01D000F008FBFE
:1009EC0000233B6400237B6407F140031946214834
:1009FC0006F01AFA0346002B01D000F0F9FA602336
:100A0C007B620023BB620023FB6200233B63002359
:100A1C007B630023BB630023FB6307F124030022E9
:100A2C001946144805F0BAFD0346002B01D000F01E
:100A3C00DFFA00237B600023BB600023FB600023F4
:100A4C003B6100237B614FF40053BB6100233B628D
:100A5C003B1D1946074806F02BFA0346002B01D024
:100A6C0000F0C6FA034801F005FE00BF5837BD463A
:100A7C0080BD00BF64060020002C014080B586B00C
:100A8C0000AF07F1080300221A605A609A60DA601E
:100A9C003B4600221A605A601D4B4FF080421A6090
:100AAC001B4B47225A601A4B00229A60184B40F29B
:100ABC00E732DA60164B00221A61154B00229A615C
:100ACC00134805F0AEFB0346002B01D000F090FA62
:100ADC004FF48053BB6007F1080319460C4805F02E
:100AEC0023FE0346002B01D000F082FA20233B604A
:100AFC0000237B603B461946054806F095F90346F2
:100B0C00002B01D000F074FA00BF1837BD4680BD31
:100B1C00A406002080B588B000AF07F110030022B6
:100B2C001A605A609A60DA60404B9B693F4A43F006
:100B3C00100393613D4B9B6903F01003FB60FB6852
:100B4C003A4B9B69394A43F020039361374B9B69BD
:100B5C0003F02003BB60BB68344B9B69334A43F002
:100B6C0004039361314B9B6903F004037B607B6846
:100B7C002E4B9B692D4A43F0080393612B4B9B69C9
:100B8C0003F008033B603B6801224FF400512848F6
:100B9C0002F0A9F901224FF41E41264802F0A3F9F4
:100BAC0001225821244802F09EF90022802122487B
:100BBC0002F099F94FF400533B6101237B61002350
:100BCC00BB610223FB6107F110031946184802F0C0
:100BDC0019F870233B6100237B610023BB6107F193
:100BEC0010031946134802F00DF84FF41E433B61F5
:100BFC0001237B610023BB610323FB6107F110031D
:100C0C0019460C4801F0FEFFD8233B6101237B61A0
:100C1C000023BB610323FB6107F11003194606484F
:100C2C0001F0F0FF00BF2037BD4680BD0010024030
:100C3C000010014000080140000C014080B582B05A
:100C4C0000AF786000F0FAF9094B1B884FF6FF7281
:100C5C00934206D0064B1B8801339AB2044B1A8080
:100C6C0002E0034B00221A8000BF0837BD4680BD4E
:100C7C003E00002080B485B000AF03460A46FB80DE
:100C8C001346BB80104B1B88FA889A4208D9FB8804
:100C9C00DB43BB81BA88BB89D31ABB800023FB80A2
:100CAC00094B1B881A46FB88D21ABB889A4202DB76
:100CBC000123FB7301E00023FB73FB7B1846143705
:100CCC00BD4680BC704700BF3E00002080B400AF22
:100CDC00024B1B881846BD4680BC70473E00002066
:100CEC0080B582B000AF01F0CFF803461946002062
:100CFC0000F052FA00F00AF901F0B2F80346194676
:100D0C00092000F049FA01F0E7F8034619461020D3
:100D1C0000F0C0FC01F040FA03461A46520013449E
:100D2C00FB7100F009FFFB791333DBB21F49184646
:100D3C0000F0B0FCFB793133DBB21946012000F036
:100D4C00C1FC01F025F903461946112000F0A2FC64
:100D5C001749172000F09EFC01F02EF903461946A6
:100D6C001A2000F097FC1249202000F093FC01F0AF
:100D7C00D9F91049232000F08DFC01F031F903461C
:100D8C001946322000F086FC01F010FA03461A4690
:100D9C0052001344BB71BB793B33DBB219460220C2
:100DAC0000F090FC00BF0837BD4680BDF006002067
:100DBC000C700008E806002080B500AF01F064F864
:100DCC0003461946002000F0E7F901F049F8034604
:100DDC001946092000F0E0F901F06AF803461946BB
:100DEC00012000F0D9F901F0D3F8034619460A2086
:100DFC0000F0D2F901F0E0F803461946022000F0A9
:100E0C00CBF901F07BF9034619460B2000F0C4F92D
:100E1C00FFF788FC0346012B0CD13749062000F064
:100E2C00BBF93649072000F0B7F93449082000F027
:100E3C00B3F958E0FFF776FC0346022B0CD130498E
:100E4C00062000F0A9F92D49072000F0A5F92B493F
:100E5C00082000F0A1F946E0FFF764FC0346032BE1
:100E6C000CD12649062000F097F92349072000F001
:100E7C0093F92249082000F08FF934E0FFF752FC77
:100E8C000346042B0CD11D49062000F085F91C49A2
:100E9C00072000F081F91949082000F07DF922E0C3
:100EAC00FFF740FC0346052B0CD11449062000F03B
:100EBC0073F91249072000F06FF90F49082000F070
:100ECC006BF910E0FFF72EFC0346062B0BD10B49F8
:100EDC00062000F061F90949072000F05DF9084986
:100EEC00082000F059F9074B01221A70064B012219
:100EFC001A7000BF80BD00BF10700008147000088D
:100F0C0018700008030000200400002080B500AF1A
:100F1C001B4B1B78002B07D01A4B1A881A4B1A80C4
:100F2C00174B00221A701BE0174B1B884FF4FA71F9
:100F3C001846FFF79FFE0346002B11D0104B0122E1
:100F4C001A70124B1B78002B14BF01230023DBB249
:100F5C0083F00103DBB203F00103DAB20B4B1A701E
:100F6C000A4B1B78002B04D00949062000F014F919
:100F7C0003E00849062000F00FF900BF80BD00BF58
:100F8C00040000203E00002044000020030000204C
:100F9C001C7000081470000880B500AF104B1B7853
:100FAC00002B07D00F4B1A880F4B1A800C4B0022CA
:100FBC001A7013E00C4B1B884FF47A711846FFF72C
:100FCC0059FE0346002B09D0054B01221A7000F084
:100FDC00B3FE4FF40051054801F09DFF00BF80BDEA
:100FEC00020000203E0000204200002000100140C2
:100FFC0080B400AF00BFBD4680BC704780B500AF69
:10100C00002280210A4801F06EFF41F288330F2242
:10101C000849094804F049FF01228021044801F0E5
:10102C0062FF00228021024801F05DFF00BF80BDFD
:10103C00000C01404C000020B805002090B583B096
:10104C0000AF01224FF41E414C4801F04CFF01222D
:10105C0058214B4801F047FF0023FB7112E0494B2C
:10106C001B781C46F979FB79C3F10E0246482346DE
:10107C001B011B1B03440B441978444B9954FB79FB
:10108C000133FB71FB790E2BE9D941F288330F2226
:10109C003E493F4804F009FF01228021384801F005
:1010AC0022FF00228021364801F01DFF354B1B78B2
:1010BC00072B48D801A252F823F000BFE910000812
:1010CC00F710000805110008131100082111000881
:1010DC002F1100083B1100084711000800224FF4A3
:1010EC000071264801F0FFFE2DE000224FF48061D4
:1010FC00224801F0F8FE26E000224FF400611F4860
:10110C0001F0F1FE1FE000224FF480511B4801F06A
:10111C00EAFE18E000224FF40041184801F0E3FE0B
:10112C0011E000220821164801F0DDFE0BE0002240
:10113C001021134801F0D7FE05E000224021104891
:10114C0001F0D1FE00BF0F4B1B780133DAB20D4B0F
:10115C001A700C4B1B78072B0BD90A4B00221A70F8
:10116C000C4B1B68092B04DC0A4B1B680133094A26
:10117C00136000BF0C37BD4690BD00BF0008014096
:10118C00000C0140460000205C0000204C000020B8
:10119C00B8050020A005002090B585B000AF03462F
:1011AC003960FB710023BB732DE2BB7B3A6813449F
:1011BC001B78FB72FB7ACF2B00F22282FB7A203B4E
:1011CC009F2B00F2DC8101A252F823F0731500086A
:1011DC008B1500088B1500088B1500088B15000863
:1011EC008B1500088B1500088B1500088B15000853
:1011FC008B1500088B150008671500085B15000897
:10120C006D150008611500088B15000813150008F2
:10121C00191500081F150008251500082B150008C6
:10122C0031150008371500083D1500084315000856
:10123C00491500084F150008551500087F150008C2
:10124C008B150008851500088B150008791500080A
:10125C008B1500088B1500088B1500088B150008E2
:10126C008B1500088B1500088B1500088B150008D2
:10127C008B1500088B1500088B1500088B150008C2
:10128C008B1500088B1500088B1500088B150008B2
:10129C008B1500088B1500088B1500088B150008A2
:1012AC008B1500088B1500088B1500088B15000892
:1012BC008B1500088B1500088B1500088B15000882
:1012CC008B1500088B1500088B1500088B15000872
:1012DC008B1500088B1500088B1500088B15000862
:1012EC008B1500088B1500088B1500088B15000852
:1012FC008B1500088B1500088B1500088B15000842
:10130C008B1500088B1500088B1500088B15000831
:10131C008B1500088B1500088B1500088B15000821
:10132C008B1500088B1500088B1500088B15000811
:10133C008B1500088B1500088B1500088B15000801
:10134C008B1500088B1500088B150008B9140008C4
:10135C00BF140008C5140008CB140008D1140008F1
:10136C00D7140008DD140008E3140008E914000881
:10137C00EF1400088B150008F5140008FB14000886
:10138C0001150008071500080D1500085914000870
:10139C005F140008651400086B1400087114000831
:1013AC00771400087D1400088314000889140008C1
:1013BC008F140008951400089B140008A114000851
:1013CC00A7140008AD140008B3140008B9140008E1
:1013DC00BF140008C5140008CB140008D114000871
:1013EC00D7140008DD140008E3140008E914000801
:1013FC00EF1400088B150008F5140008FB14000806
:10140C0001150008071500080D15000859140008EF
:10141C005F140008651400086B14000871140008B0
:10142C00771400087D140008831400088914000840
:10143C008F140008951400089B140008A1140008D0
:10144C00A7140008AD140008B31400080023FB73A4
:10145C0095E00123FB7392E00223FB738FE00323DF
:10146C00FB738CE00423FB7389E00523FB7386E09C
:10147C000623FB7383E00723FB7380E00823FB73D5
:10148C007DE00923FB737AE00A23FB7377E00B23DF
:10149C00FB7374E00C23FB7371E00D23FB736EE0A4
:1014AC000E23FB736BE00F23FB7368E01023FB73BD
:1014BC0065E01123FB7362E01223FB735FE01323DF
:1014CC00FB735CE01423FB7359E01523FB7356E0AC
:1014DC001623FB7353E01723FB7350E01823FB73A5
:1014EC004DE01923FB734AE01A23FB7347E01B23DF
:1014FC00FB7344E01C23FB7341E01D23FB733EE0B4
:10150C001E23FB733BE01F23FB7338E02023FB738C
:10151C0035E02123FB7332E02223FB732FE02323DE
:10152C00FB732CE02423FB7329E02523FB7326E0BB
:10153C002623FB7323E02723FB7320E02823FB7374
:10154C001DE02923FB731AE02A23FB7317E02B23DE
:10155C00FB7314E02C23FB7311E02D23FB730EE0C3
:10156C002E23FB730BE03223FB7308E02F23FB735A
:10157C0005E03123FB7302E03023FB7300BF274BE4
:10158C001B78002B1CD000237B7315E0F87B7B7B36
:10159C007A7BF979224CC000204403441C78214802
:1015AC001346DB0013441A01134403440B44224634
:1015BC001A707B7B01337B737B7B072BE6D919E09D
:1015CC0000233B7313E0F87B3B7B3A7BF979144C9B
:1015DC00C000204403441C78134813461B019B1A7B
:1015EC0003440B4422461A703B7B01333B733B7B19
:1015FC00072BE8D9FB79184600F018F80346FB7165
:10160C00BB7B0133BB73BB7B3A6813441B78002B49
:10161C007FF4CBAD00BF1437BD4690BD9C050020B8
:10162C0060710008D40000205C00002080B485B0FC
:10163C0000AF0346FB71FB790333FB73FB7B18464E
:10164C001437BD4680BC704780B483B000AF002314
:10165C00FB7115E00023BB710CE0FA79B9790C48E9
:10166C0013461B019B1A03440B4400221A70BB79CE
:10167C000133BB71BB790E2BEFD9FB790133FB71B5
:10168C00FB79072BE6D900BF0C37BD4680BC7047F1
:10169C005C00002080B582B000AF03463960FB715E
:1016AC00074B01221A70FB7939681846FFF774FD55
:1016BC00034B00221A7000BF0837BD4680BD00BF27
:1016CC009C050020B0B584B000AF03460A46FB7100
:1016DC001346BB716C4B1B78002B3ED06B4B1B78AD
:1016EC00FF2B09D1694AFB791370694B1B780133C5
:1016FC00DAB2674B1A7030E0664B1B78FF2B0ED1B9
:10170C00624B1B78FA799A4209D0624AFB791370C2
:10171C005F4B1B780133DAB25D4B1A701DE05E4BE8
:10172C001B78FF2B16D1594B1B78FA799A4211D0A2
:10173C00584B1B78FA799A420CD0574AFB791370A4
:10174C00534B1B780133DAB2514B1A704E4B0022BB
:10175C001A7002E04C4B00221A70504B1B68092B7C
:10176C0040F38D80FB7903337B737A7B4C4BA3FB6B
:10177C00021359080B465B000B44D31A7B737B7B1B
:10178C00484AD35CDB083B733B7B1A46520013443C
:10179C003B73BA79FB791146184600F08BF8034677
:1017AC00FB72FA793E4BA3FB021359080B465B0004
:1017BC000B44D31ABB720023FB733AE0BB7ABB73A6
:1017CC0031E0FA7BB97B3B7B194437481346DB008D
:1017DC0013441A01134403440B441B787B72FA7BA9
:1017EC00B97B3B7B0B44D91C2F481346DB001344BD
:1017FC001A01134403440B441B783B72FC7BBD7BE6
:10180C007A7B397A7B7A184600F086F803461946BB
:10181C00264A23461B011B1B13442B440A461A70F1
:10182C00BB7B0333BB73BB7B0E2BCAD9FB7B013356
:10183C00FB73FB7B072BC1D97B7B1A4AD25C013231
:10184C00D1B2184AD1547B7B164AD35CFA7A9A42AD
:10185C0003D27B7B134A0021D154154B1B780133E7
:10186C00DAB2134B1A70124B1A78094B1B789A4246
:10187C0005D10A4B00221A600D4B00221A7000BFD2
:10188C001037BD46B0BD00BF080000200500002089
:10189C00A50500200600002007000020A005002060
:1018AC00ABAAAAAA48000020D40000205C000020AB
:1018BC00A405002080B485B000AF03460A46FB7136
:1018CC001346BB71FB79134AA2FB03235B08FB7223
:1018DC00BB79104AA2FB03235B08DBB20133BB725A
:1018EC00BA7AFB7AD31A7B727B7ADB003B723B7A37
:1018FC00A3F12802FB7ADB001344FB60FB68002B8E
:10190C0001DC0023FB60FB68DBB218461437BD46D4
:10191C0080BC7047ABAAAAAA80B485B000AF0346BE
:10192C00FB710B46BB7113467B717B790D4AD35C03
:10193C0003F00703FB73FA79FB7B02FA03F3FB71E9
:10194C00BA79FB7BC3F1080342FA03F3BB71FA7952
:10195C00BB791343FB71FB7918461437BD4680BC29
:10196C00704700BF4800002080B500AFFFF76CFE49
:10197C0000F030F80F4B00221A700E4B00225A70F8
:10198C000C4B00229A700C4B00221A600B4B00225D
:10199C001A700B4B00221A700A4BFF221A700A4B5A
:1019AC00FF221A70094BFF221A70094B01221A7080
:1019BC0000BF80BD48000020A0050020A405002029
:1019CC00A5050020050000200600002007000020CF
:1019DC000800002080B483B000AF0023FB7117E037
:1019EC000023BB710EE0FA79B9790D481346DB0080
:1019FC0013441A01134403440B4400221A70BB799C
:101A0C000133BB71BB79982BEDD9FB790133FB7199
:101A1C00FB79072BE4D900BF0C37BD4680BC70475F
:101A2C00D400002084B080B582B002AF07F1080C5E
:101A3C008CE80F0003E007F1080002F057F997F863
:101A4C0060309AB2B7F85C104FF47A730093134677
:101A5C00064A07F1080001F09FFB0346002BEAD170
:101A6C0000BFBD46BDE8804004B07047F8060020BA
:101A7C0084B080B582B002AF07F1080C8CE80F007F
:101A8C0003E007F1080002F031F997F860309AB2E0
:101A9C00B7F85C104FF47A7300931346064A07F1BB
:101AAC00080001F077FC0346002BEAD100BFBD46CD
:101ABC00BDE8804004B07047F806002080B485B0C3
:101ACC0000AF0346FB71FB791B09DBB21A4692008F
:101ADC0013445B00DAB2FB7903F00F03DBB213445F
:101AEC00FB73FB7B18461437BD4680BC7047000067
:101AFC0080B485B000AF0346FB71FB790D4AA2FBA5
:101B0C000323DB08DBB21B0158B2FA79094BA3FBA8
:101B1C000213D9080B469B000B445B00D31ADBB2B3
:101B2C005BB203435BB2FB73FB7B18461437BD46B9
:101B3C0080BC7047CDCCCCCC80B400AF1F4B1B7895
:101B4C00002B03D11E4B2B221A7002E01C4B2D22B2
:101B5C001A701C4B1B781C4AA2FB0323DB08DAB25D
:101B6C00194BA3FB0213D9080B469B000B445B00DB
:101B7C00D31ADBB23033DAB2114B5A70114B1A78DC
:101B8C00114BA3FB0213D9080B469B000B445B00C3
:101B9C00D31ADBB23033DAB2094B9A70084B4022BD
:101BAC00DA70074BD0221A71054BA1225A71044BE3
:101BBC0000229A7100BFBD4680BC7047AF05002063
:101BCC00F0060020AE050020CDCCCCCC80B483B088
:101BDC0000AF0346FB71FB79144AA2FB0323DB081D
:101BEC00DAB2124BA3FB0213D9080B469B000B4431
:101BFC005B00D31ADBB23033DAB20D4B1A70FA79C0
:101C0C000A4BA3FB0213D9080B469B000B445B0049
:101C1C00D31ADBB23033DAB2054B5A70044B0022C4
:101C2C009A7000BF0C37BD4680BC7047CDCCCCCC75
:101C3C00E406002090B595B014AF364B00221A7014
:101C4C00354B1B781846FFF753FF03461A46314BAA
:101C5C005A70324B1B781846FFF74AFF03461A4658
:101C6C002C4B9A702E4B1B781846FFF741FF0346FE
:101C7C001A46284BDA702B4B1B781846FFF738FFA7
:101C8C0003461A46234B1A71274B1B781846FFF74D
:101C9C002FFF03461A461F4B5A71244B1B781846CC
:101CAC00FFF726FF03461A461A4B9A71204B1B78F6
:101CBC001846FFF71DFF03461A46164BDA711D4CEA
:101CCC0001231293D0231193684604F1100344228C
:101CDC00194605F075F994E80F00FFF7A3FE00BF55
:101CEC00144801F0F6FF0346202BF9D1114C0823C0
:101CFC001293D0231193684604F110034422194621
:101D0C0005F05EF994E80F00FFF78CFE00BF043776
:101D1C00BD4690BDF8060020A7050020A8050020B0
:101D2C00A9050020AA050020AB050020AC05002069
:101D3C00AD0500201006002090B595B014AF3D4BBA
:101D4C0000221A703C4C01231293D0231193684645
:101D5C0004F110034422194605F032F994E80F00FF
:101D6C00FFF760FE00BF344801F0B3FF0346202BA1
:101D7C00F9D1314C12231293D0231193684604F1FC
:101D8C0010034422194605F01BF994E80F00FFF7E5
:101D9C006FFE284B1B781846FFF790FE03461A4639
:101DAC00264B1A70234B5B781846FFF787FE0346C9
:101DBC001A46234B1A701F4B9B781846FFF77EFE72
:101DCC0003461A461F4B1A701A4BDB781846FFF75E
:101DDC0075FE03461A461C4B1A70164B1B79184697
:101DEC00FFF76CFE03461A46184B1A70114B5B79C1
:101DFC001846FFF763FE03461A46154B1A700D4B37
:101E0C009B791846FFF75AFE03461A46114B1A7077
:101E1C00084B5B7C03F07F03DAB20F4B1A70054B57
:101E2C005B7C23F07F03DAB20C4B1A7000BF0437D3
:101E3C00BD4690BDF806002010060020A705002026
:101E4C00A8050020A9050020AA050020AB0500204C
:101E5C00AC050020AD050020AE050020AF0500202C
:101E6C0080B582B000AF064B1B781846FFF7AEFE6C
:101E7C00044B7B607B6818460837BD4680BD00BFAD
:101E8C00A8050020E406002080B582B000AF064B08
:101E9C001B781846FFF79AFE044B7B607B6818464C
:101EAC000837BD4680BD00BFA9050020E406002010
:101EBC0080B582B000AF064B1B781846FFF786FE44
:101ECC00044B7B607B6818460837BD4680BD00BF5D
:101EDC00AA050020E406002080B483B000AF234B99
:101EEC001B78013B062B3BD801A252F823F000BF14
:101EFC00191F0008251F0008311F00083D1F00088E
:101F0C00491F0008551F0008611F0008184B7B6013
:101F1C00184B0B221A7023E0174B7B60154B0B22CE
:101F2C001A701DE0154B7B60124B07221A7017E0DC
:101F3C00134B7B600F4B05221A7011E0114B7B6029
:101F4C000C4B07221A700BE00F4B7B60094B0722DE
:101F5C001A7005E00D4B7B60064B07221A7000BF10
:101F6C007B6818460C37BD4680BC7047AA0500201C
:101F7C0020700008B0050020387000085070000870
:101F8C00607000086C7000087C7000088C70000891
:101F9C0080B582B000AF064B1B781846FFF716FED3
:101FAC00044B7B607B6818460837BD4680BD00BF7C
:101FBC00AB050020E406002080B582B000AF064BD4
:101FCC001B781846FFF702FE044B7B607B681846B3
:101FDC000837BD4680BD00BFAC050020E4060020DC
:101FEC0080B483B000AF374B1B78013B0B2B63D80D
:101FFC0001A252F823F000BF352000084120000850
:10200C004D200008592000086520000871200008A8
:10201C007D2000088920000895200008A1200008D8
:10202C00AD200008B9200008274B7B60274B062207
:10203C001A7041E0264B7B60244B07221A703BE060
:10204C00244B7B60214B04221A7035E0224B7B60C1
:10205C001E4B06221A702FE0204B7B601B4B032279
:10206C001A7029E01E4B7B60184B04221A7023E077
:10207C001C4B7B60154B04221A701DE01A4B7B60C5
:10208C00124B06221A7017E0184B7B600F4B08227C
:10209C001A7011E0164B7B600C4B07221A700BE088
:1020AC00144B7B60094B06221A7005E0124B7B60C7
:1020BC00064B07221A7000BF7B6818460C37BD46CA
:1020CC0080BC7047AC0500209C700008B105002056
:1020DC00AC700008BC700008C8700008D87000080C
:1020EC00E0700008EC700008F87000080871000837
:1020FC001C7100082C7100083C71000880B582B07E
:10210C0000AF064B1B781846FFF760FD044B7B6055
:10211C007B6818460837BD4680BD00BFAD05002062
:10212C00E406002080B400AF184B32221A70174B13
:10213C0030225A70164B1B78164AA2FB0323DB087D
:10214C00DAB2144BA3FB0213D9080B469B000B44C9
:10215C005B00D31ADBB23033DAB20C4B9A700C4BF7
:10216C001A780C4BA3FB0213D9080B469B000B44AB
:10217C005B00D31ADBB23033DAB2044BDA70034BA8
:10218C0000221A7100BFBD4680BC7047E8060020D3
:10219C00AD050020CDCCCCCC80B400AF024B1B786D
:1021AC001846BD4680BC7047B005002080B400AF17
:1021BC00024B1B781846BD4680BC7047B105002009
:1021CC0080B500AF724B1B780A2B07D1714B1B7873
:1021DC00142B03D1002000F013F9D7E06C4B1B78C3
:1021EC00032B07D16B4B1B78152B03D1012000F06F
:1021FC00D3F8CBE0664B1B780B2B07D1654B1B78C8
:10220C00152B03D1022000F0FBF8BFE0604B1B78CC
:10221C00032B07D15F4B1B78162B03D1032000F047
:10222C00BBF8B3E05A4B1B780A2B07D1594B1B78E0
:10223C00162B03D1042000F0E3F8A7E0544B1B78D5
:10224C00032B07D1534B1B78172B03D1052000F020
:10225C00A3F89BE04E4B1B780A2B07D14D4B1B78F8
:10226C00172B03D1062000F0CBF88FE0484B1B78DE
:10227C00042B07D1474B1B78182B03D1072000F0F8
:10228C008BF883E0424B1B780A2B07D1414B1B7810
:10229C00182B03D1082000F0B3F877E03C4B1B78E7
:1022AC00032B07D13B4B1B78192B03D1092000F0D2
:1022BC0073F86BE0364B1B780A2B07D1354B1B7828
:1022CC00192B03D10A2000F09BF85FE0304B1B78F0
:1022DC00032B07D12F4B1B781A2B03D10B2000F0AB
:1022EC005BF853E02A4B1B780A2B07D1294B1B7840
:1022FC001A2B03D10C2000F083F847E0244B1B78F9
:10230C00032B07D1234B1B781B2B03D10D2000F083
:10231C0043F83BE01E4B1B780B2B07D11D4B1B7856
:10232C001B2B03D10E2000F06BF82FE0184B1B7801
:10233C00032B07D1174B1B781C2B03D10F2000F05C
:10234C002BF823E0124B1B780A2B07D1114B1B786F
:10235C001C2B03D1102000F053F817E00C4B1B780A
:10236C00032B07D10B4B1B781D2B03D1112000F035
:10237C0013F80BE0064B1B780A2B07D1054B1B7887
:10238C001D2B03D1122000F03BF8FFE700BF80BDEE
:10239C00AC050020AD05002080B582B000AF03462F
:1023AC00FB71FB79124AD25C124B1B789A421AD100
:1023BC00114B1B780A2B0FD1104B1B7883F00103A8
:1023CC00DBB2002B08D00C4B0B221A70FFF732FC3F
:1023DC000A4B01221A7006E0074B1B780B2B02D913
:1023EC00064B00221A7000BF0837BD4680BD00BFE7
:1023FC00F8720008AB050020A9050020A6050020F6
:10240C0080B582B000AF0346FB71FB79124AD25CF7
:10241C00124B1B789A421AD1114B1B780B2B0FD1F4
:10242C00104B1B7883F00103DBB2002B08D00C4B54
:10243C000A221A70FFF7FEFB0A4B01221A7006E003
:10244C00074B1B780B2B02D9064B00221A7000BFCE
:10245C000837BD4680BD00BFF8720008AB050020F0
:10246C00A9050020A605002080B485B000AF154B4F
:10247C009B69144A43F001039361124B9B6903F06F
:10248C000103BB60BB680F4BDB690E4A43F0805302
:10249C00D3610C4BDB6903F080537B607B680A4B88
:1024AC005B68FB60FB6823F0E063FB60FB6843F058
:1024BC000073FB60044AFB68536000BF1437BD46D1
:1024CC0080BC7047001002400000014080B588B00D
:1024DC0000AF786007F1100300221A605A609A600E
:1024EC00DA607B681B681E4A934234D11D4B9B6992
:1024FC001C4A43F0080393611A4B9B6903F00803D1
:10250C00FB60FB684FF440633B6112237B61032348
:10251C00FB6107F110031946134800F073FB114BD4
:10252C00DB69104A43F48003D3610E4BDB6903F47F
:10253C008003BB60BB6800220021212000F0A9FAB7
:10254C00212000F0C2FA00220021222000F0A1FA82
:10255C00222000F0BAFA00BF2037BD4680BD00BF74
:10256C000058004000100240000C014080B588B0BB
:10257C0000AF786007F1100300221A605A609A606D
:10258C00DA607B681B681C4A934231D11B4BDB69B8
:10259C001A4A43F48043D361184BDB6903F480433C
:1025AC00FB60FB68154B9B69144A43F0080393616D
:1025BC00124B9B6903F00803BB60BB684FF42043CC
:1025CC003B6102237B610323FB6107F11003194676
:1025DC000B4800F017FB4FF480433B6100237B61F9
:1025EC000023BB6107F110031946054800F00AFBF4
:1025FC0000BF2037BD4680BD0038004000100240AF
:10260C00000C014080B584B000AF78607B681B681B
:10261C00164A93420CD1164B9B69154A43F400633E
:10262C009361134B9B6903F40063FB60FB6818E038
:10263C007B681B68B3F1804F13D10D4BDB690C4ADF
:10264C0043F00103D3610A4BDB6903F00103BB6068
:10265C00BB68002200211C2000F01BFA1C2000F09B
:10266C0034FA00BF1037BD4680BD00BF002C0140BE
:10267C000010024080B588B000AF786007F11003FD
:10268C0000221A605A609A60DA607B681B68104AF4
:10269C00934218D10F4B9B690E4A43F0040393618C
:1026AC000C4B9B6903F00403FB60FB684FF48073D5
:1026BC003B6102237B610323FB6107F11003194685
:1026CC00054800F09FFA00BF2037BD4680BD00BF13
:1026DC00002C0140001002400008014080B400AF03
:1026EC0000BFBD4680BC704780B400AFFEE780B42D
:1026FC0000AFFEE780B400AFFEE780B400AFFEE7AA
:10270C0080B400AF00BFBD4680BC704780B400AF42
:10271C0000BFBD4680BC704780B400AF00BFBD4653
:10272C0080BC704780B500AF00F0C0F800BF80BD22
:10273C0080B500AF024803F029FE00BF80BD00BF8A
:10274C00A406002080B500AF024801F051F800BF8C
:10275C0080BD00BF1006002080B500AF024801F01C
:10276C00ADF900BF80BD00BF1006002080B400AFE3
:10277C00154B1B68144A43F001031360124B5A6843
:10278C001149124B13404B600F4B1B680E4A23F040
:10279C00847323F4803313600B4B1B680A4A23F4B5
:1027AC0080231360084B5B68074A23F4FE035360D5
:1027BC00054B4FF41F029A60054B4FF000629A6074
:1027CC0000BFBD4680BC7047001002400000FFF8FF
:1027DC0000ED00E0002103E00B4B5B58435004314B
:1027EC000A480B4B42189A42F6D30A4A02E00023DD
:1027FC0042F8043B084B9A42F9D3FFF7B7FF04F0B9
:10280C00BBFBFDF799FF70472C73000800000020FC
:10281C00180000201800002010070020FEE7000020
:10282C0080B500AF084B1B68074A43F010031360D8
:10283C00032000F023F9002000F008F8FFF714FE45
:10284C000023184680BD00BF0020024080B582B036
:10285C0000AF7860124B1A68124B1B7819464FF474
:10286C007A73B3FBF1F3B2FBF3F3184600F03BF9C8
:10287C000346002B01D001230EE07B680F2B0AD8F6
:10288C00002279684FF0FF3000F003F9064A7B68AC
:10289C001360002300E0012318460837BD4680BDB5
:1028AC000C000020140000201000002080B400AFA9
:1028BC00054B1B781A46054B1B681344034A1360DF
:1028CC0000BFBD4680BC7047140000200C070020E0
:1028DC0080B400AF024B1B681846BD4680BC7047E5
:1028EC000C07002080B485B000AF78607B6803F0E3
:1028FC000703FB600C4BDB68BB60BA684FF6FF0349
:10290C001340BB60FB681A02BB68134343F0BF6300
:10291C0043F40033BB60044ABB68D36000BF143778
:10292C00BD4680BC704700BF00ED00E080B400AF36
:10293C00044BDB681B0A03F007031846BD4680BC3A
:10294C00704700BF00ED00E080B483B000AF0346D9
:10295C00FB7197F90730002B0BDBFB7903F01F029F
:10296C00064997F907305B09012000FA02F241F899
:10297C00232000BF0C37BD4680BC704700E100E04F
:10298C0080B483B000AF03463960FB7197F9073010
:10299C00002B0ADB3B68DAB20C4997F907301201BD
:1029AC00D2B20B4483F800230AE03B68DAB2084940
:1029BC00FB7903F00F03043B1201D2B20B441A76DD
:1029CC0000BF0C37BD4680BC704700BF00E100E083
:1029DC0000ED00E080B489B000AFF860B9607A60B7
:1029EC00FB6803F00703FB61FB69C3F10703042BCE
:1029FC0028BF0423BB61FB690433062B02D9FB6996
:102A0C00033B00E000237B614FF0FF32BB6902FA0D
:102A1C0003F3DA43BB681A407B699A404FF0FF31ED
:102A2C007B6901FA03F3D9437B680B4013431846C7
:102A3C002437BD4680BC704780B582B000AF78604B
:102A4C007B68013BB3F1807F01D301230FE00A4A7D
:102A5C007B68013B53600F214FF0FF30FFF790FF75
:102A6C00054B00229A60044B07221A60002318467B
:102A7C000837BD4680BD00BF10E000E080B582B0D5
:102A8C0000AF78607868FFF72DFF00BF0837BD46B0
:102A9C0080BD80B586B000AF0346B9607A60FB7329
:102AAC0000237B61FFF742FF78617A68B968786927
:102ABC00FFF790FF024697F90F3011461846FFF7C3
:102ACC005FFF00BF1837BD4680BD80B582B000AF38
:102ADC000346FB7197F907301846FFF735FF00BF27
:102AEC000837BD4680BD80B582B000AF786078688D
:102AFC00FFF7A2FF034618460837BD4680BD00000D
:102B0C0080B584B000AF78600023FB737B6893F8CA
:102B1C002130022B05D07B6804229A630123FB73BE
:102B2C0051E07B681B681A687B681B6822F00E02F8
:102B3C001A607B681B681A687B681B6822F00102AC
:102B4C001A607B681B68224A934229D07B681B68F9
:102B5C00204A934222D07B681B681F4A93421AD0AA
:102B6C007B681B681D4A934212D07B681B681C4A09
:102B7C0093420AD07B681B681A4A934202D14FF4E5
:102B8C0080130EE04FF080730BE04FF4803308E0BD
:102B9C004FF4805305E04FF4807302E0102300E003
:102BAC000123114A53607B68012283F821207B6842
:102BBC00002283F820207B685B6B002B03D07B68A2
:102BCC005B6B78689847FB7B18461037BD4680BD19
:102BDC00080002401C000240300002404400024049
:102BEC00580002406C0002400000024080B483B0E8
:102BFC0000AF78607B6893F8213018460C37BD46DF
:102C0C0080BC704780B48BB000AF78603960002313
:102C1C007B6200233B6227E101227B6A02FA03F309
:102C2C00FB613B681B68FA691340BB61BA69FB69BD
:102C3C009A4240F016813B685B68122B34D0122B01
:102C4C000DD8022B2BD0022B04D8002B31D0012B0A
:102C5C001CD048E0032B43D0112B1BD043E0894AF6
:102C6C00934226D0874A934206D8874A934220D073
:102C7C00864A93421DD036E0854A934219D0854A44
:102C8C00934216D0844A934213D02CE03B68DB6805
:102C9C003B6228E03B68DB6804333B6223E03B6823
:102CAC00DB6808333B621EE03B68DB680C333B623D
:102CBC0019E03B689B68002B02D104233B6212E0B5
:102CCC003B689B68012B05D108233B627B68FA6942
:102CDC001A6108E008233B627B68FA695A6102E0DA
:102CEC0000233B6200BFBB69FF2B01D87B6801E06E
:102CFC007B6804337B61BB69FF2B02D87B6A9B002A
:102D0C0002E07B6A083B9B003B617B691A680F21E0
:102D1C003B6901FA03F3DB431A40396A3B6901FA58
:102D2C0003F31A437B691A603B685B6803F08053BA
:102D3C00002B00F09680594B9B69584A43F00103D5
:102D4C009361564B9B6903F00103BB60BB68544A0B
:102D5C007B6A9B08023352F82330FB607B6A03F0DA
:102D6C0003039B000F2202FA03F3DB43FA681340C0
:102D7C00FB607B684B4A934213D07B684A4A934270
:102D8C000DD07B68494A934207D07B68484A9342EE
:102D9C0001D1032306E0042304E0022302E0012313
:102DAC0000E000237A6A02F0030292009340FA6872
:102DBC001343FB603A497B6A9B080233FA6841F87B
:102DCC0023203B685B6803F48033002B06D0394B1F
:102DDC001A683849BB6913430B6006E0354B1A6817
:102DEC00BB69DB43334913400B603B685B6803F4FE
:102DFC000033002B06D02F4B5A682E49BB69134366
:102E0C004B6006E02B4B5A68BB69DB4329491340E6
:102E1C004B603B685B6803F48013002B06D0254B9A
:102E2C009A682449BB6913438B6006E0214B9A686E
:102E3C00BB69DB431F4913408B603B685B6803F441
:102E4C000013002B06D01B4BDA681A49BB691343DD
:102E5C00CB6006E0174BDA68BB69DB4315491340BE
:102E6C00CB607B6A01337B623B681A687B6A22FA0F
:102E7C0003F3002B7FF4D0AE00BF2C37BD4680BCD3
:102E8C00704700BF0000211000001110000012104C
:102E9C00000031100000321000002210001002401F
:102EAC000000014000080140000C014000100140EE
:102EBC00001401400004014080B485B000AF78607C
:102ECC000B467B807B689A687B881340002B02D072
:102EDC000123FB7301E00023FB73FB7B18461437C3
:102EEC00BD4680BC704780B483B000AF78600B46A1
:102EFC007B8013467B707B78002B03D07A887B68B1
:102F0C001A6103E07B881A047B681A6100BF0C37D6
:102F1C00BD4680BC704780B483B000AF78600B4670
:102F2C007B807B68DA687B881340002B03D07A881F
:102F3C007B685A6102E07A887B681A6100BF0C37A3
:102F4C00BD4680BC7047000080B584B000AF78608F
:102F5C007B68002B01D101230FE17B6893F83D3096
:102F6C00DBB2002B06D17B68002283F83C2078680A
:102F7C00FFF7ACFA7B68242283F83D207B681B6842
:102F8C001A687B681B6822F001021A6002F0FAFED4
:102F9C00F8607B685B687B4A934207D8FB687A4A87
:102FAC00934294BF01230023DBB206E0FB68774A0F
:102FBC00934294BF01230023DBB2002B01D00123E9
:102FCC00DBE0FB68724AA2FB03239B0CBB607B68B3
:102FDC001B685B6823F03F017B681B68BA680A4377
:102FEC005A607B681B681B6A23F03F017B685B6837
:102FFC00644A934202D8BB68013309E0BB684FF4C2
:10300C00967202FB03F3634AA2FB03239B09013371
:10301C007A6812680B4313627B681B68DB6923F4C4
:10302C004F4222F0FF027B685B6856498B420DD8F9
:10303C00FB68591E7B685B685B00B1FBF3F30133E3
:10304C00C3F30B03042B38BF04234FE07B689B684E
:10305C00002B11D1FB68581E7B6859680B465B002E
:10306C000B44B0FBF3F30133C3F30B03002B0CBF86
:10307C0001230023DBB212E0FB68581E7B68596801
:10308C000B469B000B4499000B44B0FBF3F301334C
:10309C00C3F30B03002B0CBF01230023DBB2002B6B
:1030AC0001D0012322E07B689B68002B0ED1FB68CA
:1030BC00581E7B6859680B465B000B44B0FBF3F35E
:1030CC000133C3F30B0343F400430FE0FB68581EBA
:1030DC007B6859680B469B000B4499000B44B0FB72
:1030EC00F3F30133C3F30B0343F4404379680968EA
:1030FC001343CB617B681B681B6823F0C0017B68A2
:10310C00DA697B681B6A1A437B681B680A431A607E
:10311C007B681B689B6823F4034323F0FF037A68E6
:10312C0011697A68D26811437A6812680B4393600C
:10313C007B681B68DB6823F0FF017B685A697B683E
:10314C009B691A437B681B680A43DA607B681B68BF
:10315C001A687B681B6842F001021A607B680022C7
:10316C001A647B68202283F83D207B6800221A6356
:10317C007B68002283F83E20002318461037BD469A
:10318C0080BD00BFA08601007F841E00FF083D00AB
:10319C0083DE1B43D34D621080B588B002AFF8605C
:1031AC007A601A460B467B8113463B81FFF790FBF6
:1031BC007861FB6893F83D30DBB2202B40F0E08067
:1031CC007B690093192301227049F86802F00DF80D
:1031DC000346002B01D00223D3E0FB6893F83C306C
:1031EC00012B01D10223CCE0FB68012283F83C20A7
:1031FC00FB681B681B6803F00103012B07D0FB68FD
:10320C001B681A68FB681B6842F001021A60FB68B5
:10321C001B681A68FB681B6822F400621A60FB6862
:10322C00212283F83D20FB68102283F83E20FB68A6
:10323C0000221A64FB687A685A62FB683A895A85DC
:10324C00FB685B8D9AB2FB681A85FB68504ADA62A0
:10325C0079897B693A6AF86801F02CFE0346002BE9
:10326C0001D001238DE000233B61FB681B685B6987
:10327C003B61FB681B689B693B613B6966E07A6953
:10328C00396AF86802F087F80346002B0DD0FB680A
:10329C001B6C042B07D1FB681B681A68FB681B6846
:1032AC0042F400721A6001236BE0FB685B6A1A78C7
:1032BC00FB681B681A61FB685B6A5A1CFB685A62E4
:1032CC00FB685B8D9BB2013B9AB2FB685A85FB682D
:1032DC001B8D013B9AB2FB681A85FB681B685B6906
:1032EC0003F00403042B1BD1FB681B8D002B17D0A0
:1032FC00FB685B6A1A78FB681B681A61FB685B6A7F
:10330C005A1CFB685A62FB685B8D9BB2013B9AB2FC
:10331C00FB685A85FB681B8D013B9AB2FB681A85CA
:10332C007A69396AF86802F077F80346002B0DD0F9
:10333C00FB681B6C042B07D1FB681B681A68FB68C5
:10334C001B6842F400721A6001231AE0FB681B8DA3
:10335C00002B94D1FB681B681A68FB681B6842F44D
:10336C0000721A60FB68202283F83D20FB68002263
:10337C0083F83E20FB68002283F83C20002300E009
:10338C00022318461837BD4680BD00BF020010004E
:10339C000000FFFF80B58CB002AFF8607A601A466F
:1033AC000B467B8113463B81FFF792FA7862FB68F0
:1033BC0093F83D30DBB2202B40F013827B6A0093F4
:1033CC00192301227E49F86801F00FFF0346002BF8
:1033DC0001D0022306E2FB6893F83C30012B01D1AB
:1033EC000223FFE1FB68012283F83C20FB681B6889
:1033FC001B6803F00103012B07D0FB681B681A68DC
:10340C00FB681B6842F001021A60FB681B681A68B3
:10341C00FB681B6822F400621A60FB68222283F8A6
:10342C003D20FB68102283F83E20FB6800221A64C2
:10343C00FB687A685A62FB683A895A85FB685B8D2F
:10344C009AB2FB681A85FB685E4ADA6279897B6AF4
:10345C003A6BF86801F0A4FD0346002B01D0012360
:10346C00C0E1FB681B8D002B13D100233B62FB6872
:10347C001B685B693B62FB681B689B693B623B6A30
:10348C00FB681B681A68FB681B6842F400721A60C0
:10349C0094E1FB681B8D012B1DD1FB681B681A681E
:1034AC00FB681B6822F480621A6072B60023FB6111
:1034BC00FB681B685B69FB61FB681B689B69FB61B4
:1034CC00FB69FB681B681A68FB681B6842F4007296
:1034DC001A6062B672E1FB681B8D022B1DD1FB6872
:1034EC001B681A68FB681B6842F400621A6072B6AB
:1034FC000023BB61FB681B685B69BB61FB681B68D5
:10350C009B69BB61BB69FB681B681A68FB681B681D
:10351C0022F480621A6062B650E1FB681B681A687C
:10352C00FB681B6842F480621A6000237B61FB68B5
:10353C001B685B697B61FB681B689B697B617B69B2
:10354C003CE1FB681B8D032B00F2F580FB681B8DA7
:10355C00012B23D17A6A396BF86801F09EFF034680
:10356C00002B01D001233DE1FB681B681A69FB6845
:10357C005B6AD2B21A70FB685B6A5A1CFB685A62AF
:10358C00FB681B8D013B9AB2FB681A85FB685B8D4F
:10359C009BB2013B9AB2FB685A850FE1FB681B8D0D
:1035AC00022B50D17B6A00933B6B00220649F868D2
:1035BC0001F01BFE0346002B08D0012312E100BFD3
:1035CC00020010000000FFFF0400010072B6FB684F
:1035DC001B681A68FB681B6842F400721A60FB686F
:1035EC001B681A69FB685B6AD2B21A70FB685B6A6B
:1035FC005A1CFB685A62FB681B8D013B9AB2FB6834
:10360C001A85FB685B8D9BB2013B9AB2FB685A85AD
:10361C0062B6FB681B681A69FB685B6AD2B21A70E7
:10362C00FB685B6A5A1CFB685A62FB681B8D013B8A
:10363C009AB2FB681A85FB685B8D9BB2013B9AB210
:10364C00FB685A85BAE07B6A00933B6B00226749A2
:10365C00F86801F0CAFD0346002B01D00123C1E03C
:10366C00FB681B681A68FB681B6822F480621A608E
:10367C0072B6FB681B681A69FB685B6AD2B21A7077
:10368C00FB685B6A5A1CFB685A62FB681B8D013B2A
:10369C009AB2FB681A85FB685B8D9BB2013B9AB2B0
:1036AC00FB685A857B6A00933B6B00224F49F86894
:1036BC0001F09BFD0346002B01D0012392E0FB6837
:1036CC001B681A68FB681B6842F400721A60FB687E
:1036DC001B681A69FB685B6AD2B21A70FB685B6A7A
:1036EC005A1CFB685A62FB681B8D013B9AB2FB6843
:1036FC001A85FB685B8D9BB2013B9AB2FB685A85BD
:10370C0062B6FB681B681A69FB685B6AD2B21A70F6
:10371C00FB685B6A5A1CFB685A62FB681B8D013B99
:10372C009AB2FB681A85FB685B8D9BB2013B9AB21F
:10373C00FB685A8542E07A6A396BF86801F0ADFE95
:10374C000346002B01D001234CE0FB681B681A696F
:10375C00FB685B6AD2B21A70FB685B6A5A1CFB6826
:10376C005A62FB681B8D013B9AB2FB681A85FB6899
:10377C005B8D9BB2013B9AB2FB685A85FB681B6858
:10378C005B6903F00403042B18D1FB681B681A69EE
:10379C00FB685B6AD2B21A70FB685B6A5A1CFB68E6
:1037AC005A62FB681B8D013B9AB2FB681A85FB6859
:1037BC005B8D9BB2013B9AB2FB685A85FB681B8DF3
:1037CC00002B7FF4BEAEFB68202283F83D20FB6803
:1037DC00002283F83E20FB68002283F83C20002363
:1037EC0000E0022318462837BD4680BD04000100C6
:1037FC0080B588B000AF78600023BB617B681B6824
:10380C005B687B617B68DB6A3B617B6893F83E306D
:10381C00FB737B6893F83D30BB73FB7B102B03D0A1
:10382C00FB7B402B40F0B6807B681B689B69BB61BF
:10383C007B681B685B69FB61FB6903F00103002B70
:10384C000DD13B69B3F52A0F03D03B69B3F12A4F75
:10385C0001D1012300E00023012B00F02781FB693B
:10386C0003F00103002B0CD07B695B0A03F001030E
:10387C00002B06D0786801F094FE786800F01BFDF0
:10388C0087E0FB69DB0803F00103002B09D07B699F
:10389C005B0A03F00103002B03D0786800F090FD65
:1038AC0077E0FB695B0803F00103002B09D07B690F
:1038BC005B0A03F00103002B03D0786800F0A9FD2C
:1038CC0067E0BB699B0803F00103002B30D07B68D9
:1038DC001B685B6803F40063B3F5006F00F0E880CD
:1038EC00FB69DB0903F00103002B0FD07B699B0AFA
:1038FC0003F00103002B09D0FB699B0803F00103C3
:10390C00002B03D1786800F0FCF942E0FB699B08BE
:10391C0003F00103002B00F0CB807B695B0A03F002
:10392C000103002B00F0C480786800F0E2FABFE0DD
:10393C007B681B685B6803F40063B3F5006F00F0F1
:10394C00B780FB699B0903F00103002B0FD07B6947
:10395C009B0A03F00103002B09D0FB699B0803F0C1
:10396C000103002B03D1786800F039FB11E0FB69EF
:10397C009B0803F00103002B00F09A807B695B0A23
:10398C0003F00103002B00F09380786800F0A9FB92
:10399C008EE08DE07B681B6C002B04D07B681B6871
:1039AC005B69FB6107E07B681B689B69BB617B689B
:1039BC001B685B69FB61FB695B0803F00103002B6F
:1039CC0012D07B695B0A03F00103002B0CD07B68DF
:1039DC001B6C002B03D07B681B689B69BB61B969AE
:1039EC00786800F06DFF66E0FB691B0903F00103CA
:1039FC00002B09D07B695B0A03F00103002B03D079
:103A0C00786800F0A1FF56E0BB7B212B02D0BB7B7A
:103A1C00292B25D1FB69DB0903F00103002B0FD007
:103A2C007B699B0A03F00103002B09D0FB699B08FF
:103A3C0003F00103002B03D1786800F085FE39E018
:103A4C00FB699B0803F00103002B33D07B695B0AF5
:103A5C0003F00103002B2DD0786800F0B2FE29E0B2
:103A6C00FB699B0903F00103002B0FD07B699B0AB8
:103A7C0003F00103002B09D0FB699B0803F0010341
:103A8C00002B03D1786800F0BCFE14E0FB699B08A6
:103A9C0003F00103002B0ED07B695B0A03F00103DA
:103AAC00002B08D0786800F0EAFE04E000BF02E0CA
:103ABC0000BF00E000BF2037BD4680BD80B58AB096
:103ACC0000AF78607B681B685B693B627B681B6836
:103ADC005B68FB6100237B623B6A1B0A03F00103FA
:103AEC00002B16D0FB691B0A03F00103002B10D02E
:103AFC007B6A43F001037B627B681B686FF4807206
:103B0C005A617B681B681A687B681B6842F4004228
:103B1C001A603B6A5B0A03F00103002B0ED0FB69B1
:103B2C001B0A03F00103002B08D07B6A43F002034D
:103B3C007B627B681B686FF400725A613B6A9B0A5C
:103B4C0003F00103002B41D0FB691B0A03F00103B6
:103B5C00002B3BD07B6893F83E30FB767B685B8D0B
:103B6C009BB27B617B6893F83D30FB747B681B6B6D
:103B7C00FB60FB7E202B12D17B69002B0FD1FB7CD1
:103B8C00212B08D0FB7C292B05D0FB7C282B06D1C4
:103B9C00FB68212B03D1786801F006F816E07B68EE
:103BAC001B686FF480625A617B6A43F004037B628A
:103BBC007B6893F83E30DBB2102B07D17B681B6817
:103BCC001A687B681B6842F400721A603B6ADB0A55
:103BDC0003F00103002B0ED0FB691B0A03F0010359
:103BEC00002B08D07B6A43F008037B627B681B6860
:103BFC006FF400625A617B6A002B08D07B681A6CE8
:103C0C007B6A1A437B681A64786801F03DF800BF40
:103C1C002837BD4680BD80B483B000AF786000BF4C
:103C2C000C37BD4680BC704780B483B000AF786061
:103C3C0000BF0C37BD4680BC704780B483B000AF6A
:103C4C00786000BF0C37BD4680BC704780B483B031
:103C5C0000AF786000BF0C37BD4680BC704780B4A5
:103C6C0083B000AF78600B46FB7013463B8000BFFF
:103C7C000C37BD4680BC704780B483B000AF786011
:103C8C0000BF0C37BD4680BC704780B483B000AF1A
:103C9C00786000BF0C37BD4680BC704780B483B0E1
:103CAC0000AF786000BF0C37BD4680BC704780B455
:103CBC0083B000AF786000BF0C37BD4680BC704746
:103CCC0080B483B000AF786000BF0C37BD4680BCB9
:103CDC00704780B483B000AF78607B6893F83D3058
:103CEC00DBB218460C37BD4680BC704780B483B03D
:103CFC0000AF78607B681B6C18460C37BD4680BCE7
:103D0C00704780B584B000AF78607B6893F83D3025
:103D1C00FB737B6893F83E30BB737B68DB6ABB60DC
:103D2C007B681B8D002B50D1FB7B212B4DD1BB68AD
:103D3C00082B1DD0BB68202B1AD0BB6813F5803F15
:103D4C0016D07B681B685A687B681B6822F4E0629B
:103D5C005A607B6811221A637B68002283F83E202C
:103D6C007B68202283F83D207868FFF754FFBCE085
:103D7C007B681B685A687B681B6822F4E0625A6097
:103D8C007B681B681A687B681B6842F400721A60B7
:103D9C007B6800221A637B68202283F83D207B68B5
:103DAC0093F83E30DBB2402B07D17B68002283F8BE
:103DBC003E207868FFF769FF97E07B68002283F864
:103DCC003E207868FFF727FF8FE0FB7B212B07D085
:103DDC00BB7B402B40F08980FB7B222B40F0858005
:103DEC007B685B8D9BB2002B08D17B681B685A6883
:103DFC007B681B6822F480625A6076E07B6893F8DB
:103E0C003E30DBB2402B5DD17B681B6D002B1DD18E
:103E1C007B68DB6C012B0BD17B689B6CDAB27B680B
:103E2C001B681A617B681B6D9A1C7B681A655CE0C9
:103E3C007B689B6C9BB21B12DAB27B681B681A61A5
:103E4C007B681B6D5A1C7B681A654EE07B681B6D8A
:103E5C00012B0BD17B689B6CDAB27B681B681A61F7
:103E6C007B681B6D5A1C7B681A653EE07B681B6D7A
:103E7C00022B3AD17B6893F83D30DBB2222B08D170
:103E8C007B681B681A687B681B6842F480721A6036
:103E9C002BE07B6893F83D30DBB2212B25D17B687E
:103EAC005B6A1A787B681B681A617B685B6A5A1CB0
:103EBC007B685A627B685B8D9BB2013B9AB27B68D4
:103ECC005A8512E07B685B6A1A787B681B681A61FA
:103EDC007B685B6A5A1C7B685A627B685B8D9BB201
:103EEC00013B9AB27B685A85FFE700BF1037BD468D
:103EFC0080BD80B584B000AF78607B68DB6AFB6006
:103F0C007B6893F83D30DBB2212B64D17B685B8DF1
:103F1C009BB2002B12D07B685B6A1A787B681B689B
:103F2C001A617B685B6A5A1C7B685A627B685B8D82
:103F3C009BB2013B9AB27B685A854CE0FB68082B1C
:103F4C001DD0FB68202B1AD0FB6813F5803F16D0D0
:103F5C007B681B685A687B681B6822F4E0625A60B5
:103F6C007B6811221A637B68002283F83E207B68F1
:103F7C00202283F83D207868FFF74DFE2BE07B680C
:103F8C001B685A687B681B6822F4E0625A607B6885
:103F9C001B681A687B681B6842F400721A607B68A5
:103FAC0000221A637B68202283F83D207B6893F8FB
:103FBC003E30DBB2402B07D17B68002283F83E20D9
:103FCC007868FFF762FE06E07B68002283F83E20EB
:103FDC007868FFF720FE00BF1037BD4680BD80B566
:103FEC0084B000AF78607B6893F83D30DBB2222B55
:103FFC0073D17B685B8D9BB2FB60FB68032B20D974
:10400C007B681B681A697B685B6AD2B21A707B6822
:10401C005B6A5A1C7B685A627B685B8D9BB2013B66
:10402C009AB27B685A857B685B8D9BB2032B54D10B
:10403C007B681B685A687B681B6822F480625A6034
:10404C004BE07B68DB6A022B47D0FB68012B02D06C
:10405C00FB68002B41D17B681B681A687B681B6866
:10406C0022F480621A607B681B685A687B681B6844
:10407C0022F4E0625A607B681B681A697B685B6A91
:10408C00D2B21A707B685B6A5A1C7B685A627B6876
:10409C005B8D9BB2013B9AB27B685A857B68202270
:1040AC0083F83D207B6893F83E30DBB2402B0AD17D
:1040BC007B68002283F83E207B6800221A637868B4
:1040CC00FFF7ECFD09E07B68002283F83E207B685B
:1040DC0012221A637868FFF7A7FD00BF1037BD46A0
:1040EC0080BD80B584B000AF78607B68DB6AFB6014
:1040FC007B685B8D9BB2042B1BD17B681B685A6859
:10410C007B681B6822F480625A607B681B681A69A2
:10411C007B685B6AD2B21A707B685B6A5A1C7B68DC
:10412C005A627B685B8D9BB2013B9AB27B685A8565
:10413C00BDE07B685B8D9BB2032B29D17B681B6830
:10414C005A687B681B6822F480625A60FB68042BF7
:10415C000AD0FB68022B07D07B681B681A687B6847
:10416C001B6822F480621A607B681B681A697B6882
:10417C005B6AD2B21A707B685B6A5A1C7B685A62A3
:10418C007B685B8D9BB2013B9AB27B685A858EE053
:10419C007B685B8D9BB2022B76D1FB68012B02D026
:1041AC00FB68102B08D17B681B681A687B681B683E
:1041BC0022F480621A6019E0FB68042B02D0FB68C1
:1041CC00022B08D17B681B681A687B681B6842F459
:1041DC0080621A600AE0FB68102B07D07B681B68B2
:1041EC001A687B681B6842F400721A607B681B6853
:1041FC001A697B685B6AD2B21A707B685B6A5A1C5C
:10420C007B685A627B685B8D9BB2013B9AB27B6880
:10421C005A857B681B681A697B685B6AD2B21A7014
:10422C007B685B6A5A1C7B685A627B685B8D9BB2AD
:10423C00013B9AB27B685A857B681B685A687B681D
:10424C001B6822F440725A607B68202283F83D2060
:10425C007B6893F83E30DBB2402B0AD17B6800229E
:10426C0083F83E207B6800221A637868FFF716FDFE
:10427C001DE07B68002283F83E207B6812221A63C3
:10428C007868FFF7D1FC12E07B681B681A697B68C1
:10429C005B6AD2B21A707B685B6A5A1C7B685A6282
:1042AC007B685B8D9BB2013B9AB27B685A8500BFE1
:1042BC001037BD4680BD80B483B000AF78607B689A
:1042CC0093F83E30DBB2402B17D17B681B6D002B73
:1042DC0009D17B685B6CDBB21A467B681B6802F009
:1042EC00FE021A6167E07B685B6CDBB243F0010392
:1042FC00DAB27B681B681A615DE07B681B69B3F5F9
:10430C00804F33D17B6893F83D30DBB2212B09D140
:10431C007B685B6CDBB21A467B681B6802F0FE02A2
:10432C001A6108E07B685B6CDBB243F00103DAB224
:10433C007B681B681A617B685B6B002B03D17B6805
:10434C009B6B002B37D07B685B6B9B6A002B04D17B
:10435C007B689B6B9B6A002B2DD07B681B685A6813
:10436C007B681B6842F400625A6024E07B681B6D1A
:10437C00002B0ED17B685B6C9BB2DB11DBB203F0C4
:10438C000603DBB263F00F03DAB27B681B681A61B9
:10439C0011E07B681B6D012B0DD17B685B6C9BB2B4
:1043AC00DB11DBB203F00603DBB263F00E03DAB20F
:1043BC007B681B681A6100BF0C37BD4680BC704718
:1043CC0080B483B000AF78607B685B6CDAB27B68DA
:1043DC001B681A617B685B6B002B03D17B689B6B42
:1043EC00002B11D07B685B6B9B6A002B04D17B6824
:1043FC009B6B9B6A002B07D07B681B685A687B6899
:10440C001B6842F400625A6000BF0C37BD4680BC8A
:10441C00704780B491B000AF78607B6893F83E3001
:10442C0087F83F307B68DB6ABB637B681B6B7B6305
:10443C007B6893F83D30DBB2222B40F074817B68B3
:10444C001B6D002B0FD197F83F30402B0BD1002365
:10445C003B637B681B685B693B637B681B689B6980
:10446C003B633B6B6BE17B681B6D002B1DD17B6849
:10447C001B69B3F5404F18D10023FB627B681B68A6
:10448C005B69FB627B681B689B69FB62FB6A7B68F0
:10449C001B681A687B681B6842F480721A607B6820
:1044AC001B6D5A1C7B681A6549E17B685B8D9BB25E
:1044BC00002B13D10023BB627B681B685B69BB625A
:1044CC007B681B689B69BB62BB6A7B681B681A684C
:1044DC007B681B6842F400721A6020E17B685B8D7C
:1044EC009BB2012B40F08A80BB6B13F5803F37D118
:1044FC007B681B681A687B681B6822F480621A60F0
:10450C007B681B685B6803F40063B3F5006F13D121
:10451C007B681B681A687B681B6822F480621A60CF
:10452C0000237B627B681B685B697B627B681B6812
:10453C009B697B627B6AF2E000233B627B681B68B1
:10454C005B693B627B681B689B693B623B6A7B686F
:10455C001B681A687B681B6842F400721A60DEE004
:10456C00BB6B082B2ED0BB6B202B2BD07B6B122B59
:10457C0002D1BB6B012B25D1BB6B042B0ED0BB6BBB
:10458C00022B0BD0BB6B102B08D07B681B681A68F6
:10459C007B681B6822F480621A6007E07B681B68EA
:1045AC001A687B681B6842F480621A600023FB6106
:1045BC007B681B685B69FB617B681B689B69FB61A3
:1045CC00FB69ACE07B681B681A687B681B6822F48B
:1045DC0080621A600023BB617B681B685B69BB61EE
:1045EC007B681B689B69BB61BB697B681B681A682D
:1045FC007B681B6842F400721A6090E07B685B8DEC
:10460C009BB2022B58D1BB6B042B21D0BB6B022B62
:10461C001ED0BB6B102B1BD07B681B681A687B6889
:10462C001B6842F400621A6000237B617B681B6884
:10463C005B697B617B681B689B697B617B697B68C1
:10464C001B681A687B681B6822F480621A6012E08F
:10465C007B681B681A687B681B6842F480621A606E
:10466C0000233B617B681B685B693B617B681B6853
:10467C009B693B613B697B681B685B6803F4006367
:10468C00B3F5006F4BD1BB6B13F5803F0BD0BB6BFD
:10469C00012B08D0BB6B082B05D0BB6B102B02D0A9
:1046AC00BB6B202B3BD17B681B685A687B681B68F3
:1046BC0042F480525A6032E07B681B681A687B684F
:1046CC001B6842F480621A607B681B685B6803F4A9
:1046DC000063B3F5006F17D1BB6B13F5803F0BD0A4
:1046EC00BB6B012B08D0BB6B082B05D0BB6B102B05
:1046FC0002D0BB6B202B07D17B681B685A687B6888
:10470C001B6842F480525A600023FB607B681B6874
:10471C005B69FB607B681B689B69FB60FB687B6863
:10472C0000221A650BE00023BB607B681B685B6989
:10473C00BB607B681B689B69BB60BB68FFE700BF05
:10474C004437BD4680BC704780B584B000AF7860FC
:10475C007B6893F83D30FB737B685B8D9BB2002BC1
:10476C002BD07B685B6A1A787B681B681A617B6844
:10477C005B6A5A1C7B685A627B685B8D9BB2013BFF
:10478C009AB27B685A857B685B8D9BB2002B14D1E7
:10479C00FB7B292B11D17B681B685A687B681B68D3
:1047AC0022F480625A607B6821221A637B6828227B
:1047BC0083F83D207868FFF740FA00BF1037BD46FC
:1047CC0080BD80B483B000AF78607B685B8D9BB29A
:1047DC00002B11D07B685B6A1A787B681B681A61A6
:1047EC007B685B6A5A1C7B685A627B685B8D9BB2E8
:1047FC00013B9AB27B685A8500BF0C37BD4680BC22
:10480C00704780B584B000AF78607B6893F83D301A
:10481C00FB737B685B8D9BB2002B2CD07B681B6879
:10482C001A697B685B6AD2B21A707B685B6A5A1C25
:10483C007B685A627B685B8D9BB2013B9AB27B684A
:10484C005A857B685B8D9BB2002B14D1FB7B2A2B8A
:10485C0011D17B681B685A687B681B6822F48062E4
:10486C005A607B6822221A637B68282283F83D20D9
:10487C007868FFF7EBF900BF1037BD4680BD80B4F8
:10488C0083B000AF78607B685B8D9BB2002B12D03D
:10489C007B681B681A697B685B6AD2B21A707B688A
:1048AC005B6A5A1C7B685A627B685B8D9BB2013BCE
:1048BC009AB27B685A8500BF0C37BD4680BC7047E6
:1048CC0080B584B000AF786039600023FB737B68DF
:1048DC0093F83D30DBB203F02803282B27D17B68FB
:1048EC001B685A687B681B6822F480625A603B68BC
:1048FC009B0803F00103002B01D10123FB733B68E0
:10490C00DB0903F00103002B03D17B68DB68BB815F
:10491C0002E07B689B69BB817B68002283F83C20AA
:10492C00BA89FB7B19467868FFF799F908E07B6830
:10493C001B686FF002025A617B68002283F83C20EE
:10494C0000BF1037BD4680BD80B584B000AF786025
:10495C007B6893F83D30FB737B681B685A687B68F7
:10496C001B6822F4E0625A600023BB607B681B6802
:10497C005B69BB607B681B681A687B681B6842F0CC
:10498C0001021A60BB687B681B681A687B681B682D
:10499C0022F480621A607B681B685B6803F4006316
:1049AC00B3F5006F72D1FB7B222B02D0FB7B2A2B41
:1049BC0035D17B689B6B1B685B689AB27B685A85A8
:1049CC007B685B8D9BB2002B05D07B681B6C43F026
:1049DC0004027B681A647B681B685A687B681B68D6
:1049EC0022F400625A607B689B6B1846FEF7FEF857
:1049FC000346012B49D07B689B6B694A5A637B68E1
:104A0C009B6B1846FEF77CF80346002B3DD07B6869
:104A1C009B6B5B6B7A68926B1046984735E07B68B2
:104A2C005B6B1B685B689AB27B685A857B685B8D95
:104A3C009BB2002B05D07B681B6C43F004027B6897
:104A4C001A647B681B685A687B681B6822F40062D6
:104A5C005A607B685B6B1846FEF7C8F80346012B5F
:104A6C0014D07B685B6B4E4A5A637B685B6B184651
:104A7C00FEF746F80346002B08D07B685B6B5B6B3C
:104A8C007A68526B1046984700E000BF7B685B8DDC
:104A9C009BB2002B3ED07B681B685B6903F0040360
:104AAC00042B12D17B681B681A697B685B6AD2B2D3
:104ABC001A707B685B6A5A1C7B685A627B685B8DD8
:104ACC009BB2013B9AB27B685A857B681B685B6919
:104ADC0003F04003402B12D17B681B681A697B687A
:104AEC005B6AD2B21A707B685B6A5A1C7B685A622A
:104AFC007B685B8D9BB2013B9AB27B685A857B6865
:104B0C005B8D9BB2002B05D07B681B6C43F00402C1
:104B1C007B681A647B681B6C002B03D0786800F0F0
:104B2C00B3F839E0FB7B2A2B09D17B6800221A638E
:104B3C007B68282283F83D207868FFF787F87B682C
:104B4C0093F83D30DBB2282B11D17B68154ADA6221
:104B5C007B6800221A637B68202283F83D207B68E7
:104B6C00002283F83E207868FFF786F814E07B6813
:104B7C001B6B222B02D0FB7B222B0DD17B680022DE
:104B8C001A637B68202283F83D207B68002283F81F
:104B9C003E207868FFF75AF800BF1037BD4680BD3D
:104BAC00195100080000FFFF80B584B000AF786099
:104BBC007B6893F83D30FB737B68DB6ABB60BB683A
:104BCC00082B02D0BB68202B29D1FB7B282B26D1AC
:104BDC007B682C4ADA627B681B685A687B681B68A6
:104BEC0022F4E0625A607B681B686FF480625A6141
:104BFC007B681B681A687B681B6822F480621A60E9
:104C0C007B6800221A637B68202283F83D207B6836
:104C1C00002283F83E207868FFF72EF82EE0FB7B0D
:104C2C00212B26D17B68174ADA627B6821221A6312
:104C3C007B68202283F83D207B68002283F83E208D
:104C4C007B681B685A687B681B6822F4E0625A60B8
:104C5C007B681B686FF480625A617B681B681A68FA
:104C6C007B681B6822F480621A607868FEF7E5FFA7
:104C7C0004E07B681B686FF480625A6100BF1037D8
:104C8C00BD4680BD0000FFFF80B584B000AF7860EA
:104C9C007B6893F83D30FB737B6893F83E30DBB256
:104CAC00102B0AD1FB7B222B07D17B681B681A685F
:104CBC007B681B6822F400621A60FB7B03F02803FC
:104CCC00282B07D17B6800221A637B68282283F883
:104CDC003D2015E07B681B685B6803F40063B3F54B
:104CEC00006F06D0FB7B602B03D07B68202283F8FF
:104CFC003D207B6800221A637B68002283F83E20EB
:104D0C007B681B685B6803F40063B3F5006F61D1CB
:104D1C007B681B685A687B681B6822F400625A60C7
:104D2C007B685B6B93F82130012B20D07B685B6B2D
:104D3C005E4A5A637B685B6B1846FDF7E1FE0346DF
:104D4C00002B00F089807B681B681A687B681B68E5
:104D5C0022F001021A607B68202283F83D207B68D8
:104D6C005B6B5B6B7A68526B1046984774E07B68A0
:104D7C009B6B4E4A5A637B689B6B1846FDF7C0FED3
:104D8C000346002B68D07B681B685B6903F040030B
:104D9C00402B0BD17B681B681A697B685B6AD2B2AB
:104DAC001A707B685B6A5A1C7B685A627B681B684A
:104DBC001A687B681B6822F001021A607B6820224B
:104DCC0083F83D207B689B6B5B6B7A68926B10461B
:104DDC00984741E07B6893F83D30DBB2602B25D1DE
:104DEC007B68202283F83D207B6800221A647B6854
:104DFC001B685B6903F04003402B0BD17B681B687D
:104E0C001A697B685B6AD2B21A707B685B6A5A1C3F
:104E1C007B685A627B681B681A687B681B6822F087
:104E2C0001021A607868FEF74BFF15E07B681B687F
:104E3C005B6903F04003402B0BD17B681B681A693C
:104E4C007B685B6AD2B21A707B685B6A5A1C7B689F
:104E5C005A627868FEF72BFF7B6893F83D30FB7342
:104E6C007B681B6C03F00403042B1BD1FB7B282BEE
:104E7C0018D17B681B685A687B681B6822F4E06257
:104E8C005A607B680A4ADA627B6800221A637B6884
:104E9C00202283F83D207B68002283F83E2078682E
:104EAC00FEF7EAFE00BF1037BD4680BD1951000861
:104EBC000000FFFF80B588B002AFF8607A603B60FD
:104ECC000B467B81FB68DB6A7B617B69082B06D018
:104EDC007B69012B03D07B6913F5803F08D1FB68FC
:104EEC001B681A68FB681B6842F480721A600BE03E
:104EFC00FB681B6B122B07D1FB681B681A68FB68DD
:104F0C001B6842F480721A603B6800937B68002235
:104F1C004FF00111F86800F068F90346002B01D03E
:104F2C00012335E0FB681B69B3F5804F08D17B8901
:104F3C00DBB21A46FB681B6802F0FE021A611BE02A
:104F4C007B89DB11DBB203F00603DBB263F00F03EA
:104F5C00DAB2FB681B681A613B687A680E49F8681C
:104F6C0000F09AF90346002B01D0012310E07B8955
:104F7C00DAB2FB681B681A613B687A680749F86803
:104F8C0000F08AF90346002B01D0012300E0002336
:104F9C0018461837BD4680BD08000100020001000C
:104FAC0080B588B002AFF8607A603B600B467B81BD
:104FBC00FB68DB6A7B61FB681B681A68FB681B6813
:104FCC0042F480621A607B69082B06D07B69012B46
:104FDC0003D07B6913F5803F08D1FB681B681A6806
:104FEC00FB681B6842F480721A600BE0FB681B6B59
:104FFC00112B07D1FB681B681A68FB681B6842F40D
:10500C0080721A603B6800937B6800224FF001119C
:10501C00F86800F0EAF80346002B01D001236DE09C
:10502C00FB681B69B3F5804F08D17B89DBB243F079
:10503C000103DAB2FB681B681A6153E07B89DB1150
:10504C00DBB203F00603DBB263F00F03DAB2FB68EA
:10505C001B681A613B687A682A49F86800F01CF9E9
:10506C000346002B01D0012348E07B89DAB2FB68B0
:10507C001B681A613B687A682349F86800F00CF9E0
:10508C000346002B01D0012338E000233B61FB6871
:10509C001B685B693B61FB681B689B693B613B69F7
:1050AC00FB681B681A68FB681B6842F480721A6004
:1050BC003B6800937B6800224FF00111F86800F008
:1050CC0094F80346002B01D0012317E07B89DB11F8
:1050DC00DBB203F00603DBB263F00E03DAB2FB685B
:1050EC001B681A613B687A680749F86800F0D4F8C5
:1050FC000346002B01D0012300E00023184618378B
:10510C00BD4680BD080001000200010080B584B0DE
:10511C0000AF78607B685B6AFB60FB6893F83D309E
:10512C00FB72FB685B6B00229A62FB689B6B002234
:10513C009A62FB681B681A68FB681B6822F4806221
:10514C001A60FB6800225A85FB685B6B00225A636D
:10515C00FB689B6B00225A63FB681B681A68FB6830
:10516C001B6822F001021A60FB6893F83D30DBB239
:10517C00602B0ED1FB68202283F83D20FB680022B7
:10518C0083F83E20FB6800221A64F868FEF798FD4D
:10519C0027E0FB7A03F02803282B17D1FB681B6848
:1051AC001A68FB681B6842F001021A60FB681B68F6
:1051BC001A68FB681B6842F480621A60FB68002264
:1051CC001A63FB68282283F83D2007E0FB68202245
:1051DC0083F83D20FB68002283F83E20F868FEF738
:1051EC0066FD00BF1037BD4680BD80B584B000AFF2
:1051FC00F860B9603B601346FB7125E03B68B3F186
:10520C00FF3F21D0FDF764FB0246BB69D31A3A6815
:10521C009A4202D33B68002B16D1FB6800221A631A
:10522C00FB68202283F83D20FB68002283F83E2097
:10523C00FB681B6C43F02002FB681A64FB680022BD
:10524C0083F83C20012323E0BB681B0CDBB2012B51
:10525C000DD1FB681B685B69DA43BB6813409BB2DA
:10526C00002B0CBF01230023DBB21A460CE0FB68B9
:10527C001B689B69DA43BB6813409BB2002B0CBFC5
:10528C0001230023DBB21A46FB799A42B6D00023E5
:10529C0018461037BD4680BD80B584B000AFF860AD
:1052AC00B9607A603B6051E0FB681B685B6903F492
:1052BC008063B3F5806F23D1FB681B681A68FB68A9
:1052CC001B6842F400721A60FB681B686FF4806202
:1052DC005A61FB6800221A63FB68202283F83D2088
:1052EC00FB68002283F83E20FB681B6C43F0040231
:1052FC00FB681A64FB68002283F83C20012346E01B
:10530C007B68B3F1FF3F21D0FDF7E2FA02463B6820
:10531C00D31A7A689A4202D37B68002B16D1FB68A9
:10532C0000221A63FB68202283F83D20FB680022D0
:10533C0083F83E20FB681B6C43F02002FB681A6468
:10534C00FB68002283F83C20012320E0BB681B0C87
:10535C00DBB2012B0CD1FB681B685B69DA43BB68C1
:10536C0013409BB2002B14BF01230023DBB20BE0D4
:10537C00FB681B689B69DA43BB6813409BB2002B2C
:10538C0014BF01230023DBB2002B8DD10023184660
:10539C001037BD4680BD80B584B000AFF860B960F1
:1053AC007A602DE0F86800F0CEF80346002B01D0AF
:1053BC0001232DE0BB68B3F1FF3F21D0FDF788FA44
:1053CC0002467B68D31ABA689A4202D3BB68002B98
:1053DC0016D1FB6800221A63FB68202283F83D205B
:1053EC00FB68002283F83E20FB681B6C43F0200214
:1053FC00FB681A64FB68002283F83C20012307E059
:10540C00FB681B685B6903F08003802BCAD1002307
:10541C0018461037BD4680BD80B584B000AFF8602B
:10542C00B9607A602DE0F86800F08DF80346002B27
:10543C0001D001232DE0BB68B3F1FF3F21D0FDF774
:10544C0047FA02467B68D31ABA689A4202D3BB6801
:10545C00002B16D1FB6800221A63FB68202283F80C
:10546C003D20FB68002283F83E20FB681B6C43F058
:10547C002002FB681A64FB68002283F83C2001239D
:10548C0007E0FB681B685B6903F00403042BCAD1BB
:10549C00002318461037BD4680BD80B584B000AFE0
:1054AC00F860B9607A6042E0FB681B685B6903F0E6
:1054BC001003102B19D1FB681B686FF010025A6196
:1054CC00FB6800221A63FB68202283F83D20FB68EE
:1054DC00002283F83E20FB681A6CFB681A64FB6898
:1054EC00002283F83C20012329E0FDF7F1F9024664
:1054FC007B68D31ABA689A4202D3BB68002B16D1C8
:10550C00FB6800221A63FB68202283F83D20FB68AD
:10551C00002283F83E20FB681B6C43F02002FB68E2
:10552C001A64FB68002283F83C20012307E0FB6827
:10553C001B685B6903F04003402BB5D10023184670
:10554C001037BD4680BD80B483B000AF78607B68F7
:10555C001B685B6903F48063B3F5806F1BD17B68B8
:10556C001B686FF480625A617B6800221A637B6847
:10557C00202283F83D207B68002283F83E207B6844
:10558C001B6C43F004027B681A647B68002283F86E
:10559C003C20012300E0002318460C37BD4680BC9C
:1055AC00704780B483B000AF78607B68DB6AB3F57A
:1055BC002A0F03D17B680122DA6207E07B68DB6A81
:1055CC00B3F12A4F02D17B680822DA6200BF0C3794
:1055DC00BD4680BC7047000080B586B000AF7860D7
:1055EC007B68002B01D101236CE27B681B6803F004
:1055FC000103002B00F08780924B5B6803F00C03D7
:10560C00042B0CD08F4B5B6803F00C03082B12D1CE
:10561C008C4B5B6803F48033B3F5803F0BD1894B23
:10562C001B6803F40033002B6CD07B685B68002B89
:10563C0068D1012346E27B685B68B3F5803F06D1F5
:10564C00804B1B687F4A43F4803313602EE07B68E9
:10565C005B68002B0CD17B4B1B687A4A23F480339C
:10566C001360784B1B68774A23F4802313601DE08A
:10567C007B685B68B3F5A02F0CD1724B1B68714A29
:10568C0043F4802313606F4B1B686E4A43F48033E2
:10569C0013600BE06B4B1B686A4A23F48033136076
:1056AC00684B1B68674A23F4802313607B685B6834
:1056BC00002B13D0FDF70CF9386108E0FDF708F961
:1056CC0002463B69D31A642B01D90323FAE15D4BE3
:1056DC001B6803F40033002BF0D014E0FDF7F8F84E
:1056EC00386108E0FDF7F4F802463B69D31A642BE5
:1056FC0001D90323E6E1534B1B6803F40033002B61
:10570C00F0D100E000BF7B681B6803F00203002BA4
:10571C0063D04C4B5B6803F00C03002B0BD0494B54
:10572C005B6803F00C03082B1CD1464B5B6803F43D
:10573C008033002B16D1434B1B6803F00203002B64
:10574C0005D07B681B69012B01D00123BAE13D4BCD
:10575C001B6823F0F8027B685B69DB003949134353
:10576C000B603AE07B681B69002B20D0364B012282
:10577C001A60FDF7ADF8386108E0FDF7A9F80246AC
:10578C003B69D31A022B01D903239BE12D4B1B68D8
:10579C0003F00203002BF0D02A4B1B6823F0F80215
:1057AC007B685B69DB00274913430B6015E0264BD4
:1057BC0000221A60FDF78CF8386108E0FDF788F8D4
:1057CC0002463B69D31A022B01D903237AE11D4B04
:1057DC001B6803F00203002BF0D17B681B6803F0FD
:1057EC000803002B3AD07B689B69002B19D0174B10
:1057FC0001221A60FDF76CF8386108E0FDF768F8D3
:10580C0002463B69D31A022B01D903235AE10D4BF3
:10581C005B6A03F00203002BF0D0012000F0C6FA03
:10582C001CE00A4B00221A60FDF752F838610FE0B9
:10583C00FDF74EF802463B69D31A022B08D9032315
:10584C0040E100BF0010024000004242800442428E
:10585C009E4B5B6A03F00203002BE9D17B681B684B
:10586C0003F00403002B00F0A6800023FB75974B7C
:10587C00DB6903F08053002B0DD1944BDB69934A09
:10588C0043F08053D361914BDB6903F08053BB60D1
:10589C00BB680123FB758E4B1B6803F48073002BD4
:1058AC0018D18B4B1B688A4A43F480731360FDF745
:1058BC000FF8386108E0FDF70BF802463B69D31A84
:1058CC00642B01D90323FDE0814B1B6803F4807327
:1058DC00002BF0D07B68DB68012B06D17B4B1B6A5D
:1058EC007A4A43F0010313622DE07B68DB68002BDE
:1058FC000CD1764B1B6A754A23F001031362734B70
:10590C001B6A724A23F0040313621CE07B68DB6899
:10591C00052B0CD16D4B1B6A6C4A43F004031362CC
:10592C006A4B1B6A694A43F0010313620BE0674B35
:10593C001B6A664A23F001031362644B1B6A634AB9
:10594C0023F0040313627B68DB68002B15D0FCF793
:10595C00BFFF38610AE0FCF7BBFF02463B69D31A74
:10596C0041F28832934201D90323ABE0574B1B6AB7
:10597C0003F00203002BEED014E0FCF7A9FF386112
:10598C000AE0FCF7A5FF02463B69D31A41F28832C4
:10599C00934201D9032395E04C4B1B6A03F002039D
:1059AC00002BEED1FB7D012B05D1484BDB69474A1F
:1059BC0023F08053D3617B68DB69002B00F081807E
:1059CC00424B5B6803F00C03082B61D07B68DB69EE
:1059DC00022B46D13F4B00221A60FCF779FF38614D
:1059EC0008E0FCF775FF02463B69D31A022B01D97C
:1059FC00032367E0354B1B6803F00073002BF0D1D9
:105A0C007B681B6AB3F5803F08D1304B5B6823F48D
:105A1C0000327B689B682D4913434B602B4B5B68B2
:105A2C0023F474127B68196A7B685B6A0B43274901
:105A3C0013434B60274B01221A60FCF749FF386176
:105A4C0008E0FCF745FF02463B69D31A022B01D94B
:105A5C00032337E01D4B1B6803F00073002BF0D0C1
:105A6C002FE01C4B00221A60FCF732FF386108E073
:105A7C00FCF72EFF02463B69D31A022B01D90323F4
:105A8C0020E0124B1B6803F00073002BF0D118E0E0
:105A9C007B68DB69012B01D1012313E00B4B5B68A5
:105AAC00FB60FB6803F480327B681B6A9A4206D168
:105ABC00FB6803F470127B685B6A9A4201D0012385
:105ACC0000E0002318461837BD4680BD0010024088
