:020000040800F2
:10000000005000208D240008F5230008F923000883
:10001000FD2300080124000805240008000000005A
:10002000000000000000000000000000092400089B
:100030000D24000800000000112400081524000809
:10004000D5240008D5240008D5240008D5240008AC
:10005000D5240008D5240008D5240008D52400089C
:10006000D5240008D5240008D5240008D52400088C
:10007000D5240008D5240008D5240008D52400087C
:10008000D5240008D5240008D5240008D52400086C
:10009000D5240008D5240008D5240008D52400085C
:1000A000D5240008D5240008D5240008D52400084C
:1000B00019240008D5240008D5240008D5240008F8
:1000C000D52400082524000831240008D524000880
:1000D000D5240008D5240008D5240008D52400081C
:1000E000D5240008D5240008D5240008000000000D
:1000F0000000000000000000000000000000000000
:0C01000000000000000000005FF808F1A3
:10010C0010B5054C237833B9044B13B10448AFF345
:10011C0000800123237010BD180000200000000097
:10012C00F04F000808B5034B1BB103490348AFF36C
:10013C00008008BD000000001C000020F04F0008EB
:10014C002DE9F04140219E4802F0C0FB9D4C012856
:10015C0023784FF010010CBF43F0010303F0FE03B2
:10016C009748237002F0B2FB237801280CBF43F0B0
:10017C00020303F0FD0320219148237002F0A6FB3B
:10018C00237801280CBF43F0040303F0FB0303F0B6
:10019C00070041B2DA088C4D81EA020691422E70BA
:1001AC0023708A4D02D02A78002A62D1884E1421FD
:1001BC00308800F0B1F900283CD04FF0010C854894
:1001CC002178854A077801F0070313709F424FEAA4
:1001DC00C102D2B285F800C025D1804D804F814E2E
:1001EC0001EA0C00C1F34003C1F3800128703B709D
:1001FC0031702270002B2CD07B4A117849BB012125
:10020C007A4B11701B78002B40F08980317809B93A
:10021C00774B19702B7823B901207649764A0870F0
:10022C001370BDE8F081002103702270297000F07A
:10023C0083F930806A4F2A783B7832B12278674D47
:10024C00D200D2B2674E2270D4E7644D654E002BBB
:10025C00D2D13178E1B1664A1078C8B9012063492E
:10026C0010700A78002A70D1002BD3D15E4A13701B
:10027C00D0E7584ADB002370107000F05DF90023C2
:10028C00534A574F2B7010803B78544D554EB1E765
:10029C002A7812B3574C94F80080B8F1000F2ED185
:1002AC00554C2278A2B1554B4FF47A71188800F056
:1002BC0033F900285ED04D4884F8008002783B78F2
:1002CC0082F001023178027012B101204C4A107098
:1002DC00002B9CD1444A137099E7474800780028BA
:1002EC00F6D042480478002CF2D0454E34780134D4
:1002FC00E4B2062C92BF347032700270E8E700F062
:10030C001BF94FF0000E4FF0010C3C4A3B7810806B
:10031C00394A317884F800E082F800C0D8E7384BCD
:10032C001B78013B052B0BD8DFE803F07E764139B7
:10033C003027344A1378002B40F08E80172313702B
:10034C0001F0AEFB3B783178C2E72D4B1B78013BBB
:10035C00052BF5D801A252F823F000BF3F0300088B
:10036C0045040008790400086B0400085D040008CB
:10037C00510400083B783178AAE7234A13780133FB
:10038C00DBB2632B00D900231370D9E71F4A137813
:10039C000133DBB20C2BF7D901231370D0E71C4AC5
:1003AC0013780133DBB21F2BF6D81370C8E7194A48
:1003BC0013780133DBB2072BEED81370C0E700BF04
:1003CC00000801403500002034000020000000200F
:1003DC0036000020B1050020B2050020B505002034
:1003EC00B3050020B40500203A0000204400002092
:1003FC003B000020010000203C00002038000020C1
:10040C003D000020A7050020B0050020A905002014
:10041C00A5050020A6050020194A13780133DBB28C
:10042C003B2BB0D813708BE7164A13780133DBB231
:10043C00172BA8D8137083E7114A137863B93B23A1
:10044C0013707DE7104A137833B96323137077E781
:10045C000E4A1378012B10D0013B137070E70C4A35
:10046C001378012BF8D11F23137069E7094A13780D
:10047C00012BF1D10723137062E70C2313705FE794
:10048C00A8050020A7050020B0050020A905002024
:10049C00A5050020A6050020014B1878704700BF69
:1004AC003D00002030B5012200244FF4803302259A
:1004BC004FF4E01191B006A806920A920793CDE989
:1004CC000D530F91089401940994CDE90B44CDE997
:1004DC000244CDE9044403F0B1FD0F224FF48063D4
:1004EC0001A82946CDE9025405940192049303F026
:1004FC009DFF11B030BD00BF08B500F0E3FA4FF618
:10050C00FF71044A13888B420EBF002301339BB248
:10051C00138008BD3E000020064B1B88834203D28B
:10052C00C2430020891A89B2181A8842B4BF00202D
:10053C00012070473E000020014B1888704700BF17
:10054C003E00002010B501F017FC3F4C0146002086
:10055C0000F05CFB2178002958D000223B4B3C4931
:10056C0018883C4B088018782270002861D13A49D1
:10057C00062000F04BFB01F0DDFB0146092000F0EA
:10058C0045FB01F03DFC0146102000F0B9FE01F0E6
:10059C006DFD00EB4000C4B201F050FA04F1130001
:1005AC00C0B22E4900F0ACFE04F13101C9B20120F9
:1005BC0000F0B2FE01F066FC0146112000F0A0FE36
:1005CC002749172000F09CFE01F07EFC01461A2002
:1005DC0000F096FE2249202000F092FE01F020FD52
:1005EC002049232000F08CFE01F090FC01463220C3
:1005FC0000F086FE01F040FDBDE8104000EB40002D
:10060C0000F13B01C9B2022000F086BE104B0F4A2C
:10061C001B881088834211D84FF4FA72C31A0D4903
:10062C0093420878A1DB01235840087023700028FE
:10063C009DD00D49062000F0E9FA9CE7DA43C2F59B
:10064C00FA720B4692B2E9E7030000203E0000204C
:10065C0042000020040000201C500008F00600207E
:10066C0020500008E80600201850000808B501F0DA
:10067C0083FB0146002000F0C9FA01F05BFB014648
:10068C00092000F0C3FA01F099FB0146012000F0AB
:10069C00BDFA01F0F7FB01460A2000F0B7FA01F0B1
:1006AC0013FC0146022000F0B1FA01F097FC014660
:1006BC000B2000F0ABFAFFF7EFFE012831D0FFF76B
:1006CC00EBFE02281BD0FFF7E7FE032838D0FFF71C
:1006DC00E3FE04283AD0FFF7DFFE052823D0FFF70E
:1006EC00DBFE062817D11C4900F090FA1A490720A6
:1006FC0000F08CFA1949082000F088FA0BE0174931
:10070C00062000F083FA1449072000F07FFA124902
:10071C00082000F07BFA01231149124A0B70137068
:10072C0008BD1149ECE70C49062000F06FFA0A49A4
:10073C00072000F06BFA0C49082000F067FAEAE792
:10074C000549062000F062FA0749DDE70249062058
:10075C0000F05CFA0149D7E71C500008285000084B
:10076C000400002003000020245000082DE9F04F65
:10077C0000269DB001F0CEFEFFF794FE0122CDE9DC
:10078C001466CDE91666AE4B174699694FF02008F2
:10079C0041F0100199614FF4005198690D4600F039
:1007AC001000039003989C69A64844F020049C61B7
:1007BC009C694FF4805A04F020040494049C9C69B6
:1007CC00DFF8AC9244F004049C61D3F818C0032405
:1007DC000CF0040CCDF814C0DDF814C0D3F818C01C
:1007EC004CF0080CC3F818C09B6903F0080306937F
:1007FC00069B02F071F83A464FF41E41924802F003
:10080C006BF83A465821914802F066F8324680213E
:10081C008E4802F061F8022314A98A48CDE91457D6
:10082C001793169601F058FF702314A98648149359
:10083C00CDE9156601F050FF4FF41E4314A9824810
:10084C00CDE915761493179401F046FFD82314A91B
:10085C007E48CDE91576179414934FF4827401F009
:10086C003BFF4FF400710A22794BDFF808C218469F
:10087C00C3E900C49961DA62C3E90266C3E904669C
:10088C00C3E90766C3E9096603F0ACFE424631468C
:10089C0014A8099607960D96CDE90A660C9608964B
:1008AC00CDE90E66CDE91066CDE9126604F091FB38
:1008BC00FF23684C2046E360C4F80090C4E901664D
:1008CC00C4E90466A66103F0E3FF09A92046CDF84C
:1008DC0024A004F0A7F9204604F03AF807A9204612
:1008EC00CDE9076604F0F6FA602332460DA92046DE
:1008FC000D93CDE90E66CDE91066CDE9126604F0D4
:10090C0097F814A920461995CDE91466CDE9166619
:10091C0018961B9604F000FB204601F039FD472287
:10092C0040F2E7334FF080414B4D14962846C5E911
:10093C000012EB60CDE915661796CDE90D66AE6039
:10094C002E61AE6103F0A4FF14A92846CDF850A087
:10095C0004F068F90DA92846CDE90D8604F0BAFA21
:10096C004FF480423D4BDFF810C13D491846C3E9B6
:10097C0000C1C3E90266C3E90566C3E907661A61EB
:10098C0001F0B4FF284603F0D1FF31462046354C28
:10099C0004F02CF8C9F8347000F074F8DFF8DCA01F
:1009AC00019701F027F9304B207893F80090DFF88D
:1009BC00D0802E4FBAF8001010BBB8F800308B4224
:1009CC0037D84FF47A72C91A8A4208DC019B23701B
:1009DC0001F010F94FF400511A4801F081FFFFF7B4
:1009EC00AFFB01F04FFB97F800B0BBF1000F14D038
:1009FC00FFF73CFE5E462078BAF800100028DCD0E9
:100A0C000023A8F800102370FFF79AFB01F03AFBC3
:100A1C0097F800B0BBF1000FEAD1134B1D784D4590
:100A2C0000D10EB100F0B4FFFFF78CFDA9465E4675
:100A3C00E1E7DA43C2F57A72034692B2C3E700BF2C
:100A4C00001002400010014000080140000C014061
:100A5C00B805002064060020A40600201006002023
:100A6C00A086010002000020A60500204400002002
:100A7C00002C014000380040005800403E0000208F
:100A8C004000002010B50C4C00222046802101F0C3
:100A9C0023FF41F288330F220849094803F0E2FD95
:100AAC0020460122802101F017FF2046BDE81040AE
:100ABC000022802101F010BF000C014088050020AD
:100ACC00B805002070B501224FF41E414848494C2E
:100ADC0001F002FF01225821474801F0FDFE227867
:100AEC004649C2EB02128B1845488D5C5A789978AE
:100AFC0085734273DD781A790173C57259799D79C2
:100B0C008272DA7941720572197A5D7AC2719A7AB7
:100B1C0081714571D97A1E7B02719D7B5A7BC170A4
:100B2C0041F288330146427086700F2205703548B9
:100B3C0003F098FD012280212F4801F0CDFE002208
:100B4C0080212D4801F0C8FE2378072B0BD8DFE855
:100B5C0003F019212931394148040022402126484B
:100B6C0001F0BAFE23780133DBB2072B08D900233E
:100B7C00254A23701368092BDCBF0133136070BD49
:100B8C00237070BD00224FF40071194801F0A4FECF
:100B9C002378E8E700224FF48061154801F09CFEB1
:100BAC002378E0E700224FF40061114801F094FE35
:100BBC002378D8E700224FF480510D4801F08CFEC9
:100BCC002378D0E700224FF40041094801F084FE5D
:100BDC002378C8E700220821074801F07DFE23781E
:100BEC00C1E700221021044801F076FE2378BAE711
:100BFC0000080140A4050020000C01404800002022
:100C0C0088050020B8050020A00500200A78002ADD
:100C1C0000F0728300232DE9F04F984C85B02478B6
:100C2C00DFF85CB2DFF85C9202940191CF2A00F2FB
:100C3C00C980203A9F2A00F23A83DFE812F0CD00F7
:100C4C0038033803380338033803380338033803C0
:100C5C0038033803D800E300EE00F9003803040130
:100C6C0011012501340140014E015C016B01790138
:100C7C00840192019D01A8013803B4013803BF011E
:100C8C003803380338033803380338033803380380
:100C9C003803380338033803380338033803380370
:100CAC003803380338033803380338033803380360
:100CBC003803380338033803380338033803380350
:100CCC003803380338033803380338033803380340
:100CDC003803380338033803380338033803380330
:100CEC003803380338033803380338033803380320
:100CFC003803380338033803380338033803CC017E
:100D0C00D801E301EF01FB01070213021F022C02C1
:100D1C003702380343024F025B02670273027E0202
:100D2C008B029702A202AE02BB02C702D202DE0203
:100D3C00EB02F9020503130321032D03A000CC01E0
:100D4C00D801E301EF01FB01070213021F022C0281
:100D5C003702380343024F025B02670273027E02C2
:100D6C008B029702A202AE02BB02C702D202DE02C3
:100D7C00EB02F9020503130321032D03A0006624E3
:100D8C000F22002625462746A446A646A0464FF02D
:100D9C007E0A0392029A002A40F09B8209EB000221
:100DAC0009F800A082F80F8082F81EE082F82DC0AE
:100DBC0082F83C7082F84B5082F85A4082F8696095
:100DCC000330C0B20133019ADBB2D25C002A7FF44B
:100DDC002DAF05B0BDE8F08F0026322234460392C9
:100DEC0035463746B446B646B046B246D2E7182426
:100DFC0000267E272D22B2462546A646A046BC4696
:100E0C000392C7E7002618252B22B446B646B046F7
:100E1C00B2462F4630240392BCE700267E272E22B2
:100E2C0034463546B646B046B246BC460392B1E7A8
:100E3C00002618242C223746B446B646B046B24695
:100E4C0025460392A6E7382444251F22A246A8462D
:100E5C00002664274FF0540C4FF04C0E039299E788
:100E6C000C242022002625462746A446A2464FF0F5
:100E7C003C0E4FF01C0803928CE700BF9905002034
:100E8C00C000002048000020212200267E2460257E
:100E9C0030274FF01C0C4FF0060E4FF066084FF049
:100EAC003C0A039276E73C24662506272222A246BA
:100EBC00A846BE4600264FF01C0C03926AE70C2491
:100ECC00232200262546A2467E274FF06C0C4FF0BD
:100EDC002C0E4FF01C0803925CE7062724220026F8
:100EEC00BC463C2466254FF07C0E4FF060084FF05A
:100EFC007E0A03924EE76625252200262F463C24C7
:100F0C004FF07C0C4FF0600E4FF030084FF01C0A85
:100F1C0003923FE718244FF0060E2622254627465B
:100F2C00F04600264FF00C0C4FF07E0A039231E78E
:100F3C0066253C242722A446A2462F46AE46A84648
:100F4C000026039226E74FF0660E28220026F04674
:100F5C0038240C2506274FF03E0C4FF03C0A039228
:100F6C0018E70026182429223746B446B2462546EF
:100F7C00A646A04603920DE7182500262A22B44661
:100F8C00B2462F46AE46A8463024039202E70C2404
:100F9C00182530273122A246A846BE4600264FF01F
:100FAC00600C0392F6E6302560241827A246A8466A
:100FBC000395BE4600264FF00C0CEBE600264FF0D6
:100FCC001C0C4FF0360E2F22344635463746E2467F
:100FDC00F0460392DEE64FF0660C60247C2710226C
:100FEC002546BA46E646E04600260392D2E660273E
:100FFC003C2466251122A246A846BC46BE460026C5
:10100C000392C7E618241222002625462746A4463A
:10101C00A646A0464FF07E0A0392BBE66625132235
:10102C000026AE46A846AA463C2406274FF03E0CA6
:10103C000392AFE64FF05A0C18243C271422254695
:10104C00BA46E646E04600260392A3E666243C2711
:10105C0015222546A046A246BE4600264FF0180C87
:10106C00039297E64FF06C0C16220026E646E046FB
:10107C00E24606247E257C2703928BE606244FF05D
:10108C00660E172225462746F046F24600264FF0FC
:10109C003E0C03927EE65A277E2418222546BC4637
:1010AC00BE46B846BA460026039273E64FF05A0C79
:1010BC007E2519222F46E646E046E24600266024AD
:1010CC00039267E64FF0620E7A2466251A22A44634
:1010DC002F46F046F246002603925BE64FF0600E78
:1010EC007C2466251B22A4462F46F046F246002699
:1010FC0003924FE638244C2506271C22A246A8460C
:10110C00BE4600264FF03E0C039243E65A254E2471
:10111C001D22A2462F46AE46A84600264FF07A0C5A
:10112C00039237E666243E271E22A446A646A04616
:10113C00BA460026362503922CE666240026254660
:10114C000396A4467E274FF0360E4FF01E084FF044
:10115C000E0A1FE67C2466254FF0600E0122A44681
:10116C00A2462F46F0460026039213E666257C2401
:10117C000222A446A2462F46AE46A846002603925B
:10118C0008E660240322002625462746A446A646E8
:10119C00A0464FF07E0A0392FCE52C270422002681
:1011AC00BC46BE4666247E254FF03C084FF01C0A18
:1011BC000392EFE560257E240522A2462F46AE461B
:1011CC00A84600264FF07C0C0392E3E55A243C27FA
:1011DC0006222546A046A246BC46BE4600260392E1
:1011EC00D8E53C24662560270722A246A846BE46C1
:1011FC0000264FF01C0C0392CCE566240822002636
:10120C002546A046A24676274FF07E0C4FF06E0E78
:10121C000392BFE56624092200262546A0467627C0
:10122C004FF07E0C4FF06E0E4FF0180A0392B1E5A2
:10123C0066246C2578270A22A246A846BE460026BC
:10124C004FF0700C0392A5E566240B220026254670
:10125C002746A4464FF0360E4FF01E084FF00E0AEC
:10126C00039297E544240C22002625462746A246E5
:10127C004FF0540C4FF07C0E4FF06C08039289E544
:10128C0066240D22002625462746A646A046A246E1
:10129C004FF07E0C03927DE566253C240E22A2467F
:1012AC002F46AC46AE46A8460026039272E503993B
:1012BC00124A02EBC10292F8018092F802E092F815
:1012CC0003C0177955799479D6790C4A12F831A064
:1012DC0060E50BEB00020BF800A082F8998082F815
:1012EC0032E182F8CBC182F8647282F8FD5282F846
:1012FC00964382F82F6463E5704700BF2C500008BA
:10130C00012310B5034C2370FFF780FC00232370DE
:10131C0010BD00BF990500202DE9F04FCA4B9BB0C2
:10132C001A7882B1C94C2278FF2A00F00C83C84D80
:10133C002C78FF2C00F01B83C64D2E78FF2E00F06E
:10134C00088300221A70C44B1B68092B40F3F382EC
:10135C00C24BC21CD2B2A3FB0254640804EB44047B
:10136C00121BD2B21446A3FB00656D0805EB4502B7
:10137C000895BB4D801A2E5DC0B20C960F9400F1EF
:10138C000C02F40800F1090600F1030CF6B2D2B21B
:10139C0004EB44045FFA8CF50E920D96B14A00EB07
:1013AC00040E04EB050C871D01950D9E0E9D0EF190
:1013BC00030BFFB2A6191197E7192C4402EB0B058E
:1013CC000CF1030A12F80BB0029502EB0E0507F1B3
:1013DC0003090A9502EB0A0506F103080395CDF8FB
:1013EC004CB002EB0C0512F80EB012F80AE012F831
:1013FC000CA002EB090CCDF814C012F809C002EBDA
:10140C00080912F808800B95CDF85C80A3FB0181CC
:10141C000C9BD51903F00703D75D0BFA03F8CDF835
:10142C0048800AFA03F8CDF8508007FA03F89719A8
:10143C000495CDF81C900093CDF854800697965DDA
:10144C00E51C06FA03F8561909961619145DCDF821
:10145C00588004FA03F80A9C9DF8207094F899407F
:10146C00555DCDF86080C7EB510204FA03F8029980
:10147C00059C013291F899B094F899900B990896C3
:10148C00049C039ED200D2B296F899A094F899408D
:10149C0091F89960283ACDF8648002EBC708C3F143
:1014AC0008029E409C4013461399CDF8408041FAA7
:1014BC0002F817994AFA02FA41FA02F749FA02F9C4
:1014CC004EFA02FE4CFA02FC15414BFA02FB149A3E
:1014DC00129942EA0E0E159A41EA080842EA0C0CDF
:1014EC00169A61491743189A01F800801543199A06
:1014FC0044EA090442EA0B0BCDF848B001EB000BAF
:10150C000198119A01F800E001EB000901F802C002
:10151C0001EB020807980D9A90F899008F54069FDA
:10152C0046EA0A06019340FA03FA97F89970009B71
:10153C0001EB020E9F404AEA07000346099A019804
:10154C0092F899700E9A8D5401EB020A089A47FA98
:10155C0000F592F899101298009A8BF80F009140B0
:10156C0089F80F600A9A88F80F400298039C0D4383
:10157C0092F832618EF80F3094F832718AF80F506D
:10158C0090F832510B990598009B91F832419E408E
:10159C0090F83211019B04981F4190F832C145FA22
:1015AC0003F01D46009B29419C402B46009D3C436B
:1015BC000CFA05FC069F46EA0005079E97F83201D7
:1015CC0096F83261009F1E41B8403043099F089E37
:1015DC004CEA010C96F8326197F83211009F1941D0
:1015EC00BE4092F8CB711A463143029E8BF81E50C6
:1015FC0096F8CB6189F81E401E41009B9F403743F3
:10160C00039E009B96F8CB6146FA02F50B9A92F872
:10161C00CB619E402E43059D95F8CB41049D019ACC
:10162C0095F8CB5114419D402543079C88F81EC06A
:10163C0094F8CB41009B44FA02FC069C8EF81E00E9
:10164C0094F8CB4112E000BF0500002006000020FA
:10165C000700002008000020A0050020ABAAAAAAC1
:10166C009C050020C00000204800002009989C40E8
:10167C00134644EA0C0490F8CBC108984CFA02FCCF
:10168C0090F8CB01009A8AF81E109040029A40EA1A
:10169C000C0092F864C20A9A4CFA03FC92F8641299
:1016AC00009B8BF82D70994041EA0C0189F82D6054
:1016BC000B9B88F82D508EF82D408AF82D008BF856
:1016CC003C10039993F8645291F86412059C049FA2
:1016DC0094F8640297F86442079F97F86462069F37
:1016EC0097F864C2009F05FA07F7019D29410A91FA
:1016FC00009928412E418C400A9D0CFA01FC099955
:10170C003D430443019F91F864120898394190F8C5
:10171C006402009F4CEA060CB840029F014397F804
:10172C00FD620098019F0A9192F8FD123E418140A2
:10173C000E430B96039E019993F8FD7296F8FD6289
:10174C0087400E413743059E96F8FD6289F83C5060
:10175C0046FA01F5049988F83C4091F8FD62079C23
:10176C0086402E43069D019994F8FD4295F8FD5252
:10177C000C4185402543099C019994F8FD428EF853
:10178C003CC044FA01FC089C0A9994F8FD428AF882
:10179C003C108440029844EA0C04019990F896C3DA
:1017AC0092F896034CFA01FC00998840039940EAA0
:1017BC000C0091F896C30B998BF84B10019989F892
:1017CC004B704CFA01FC009F93F8961388F84B6011
:1017DC00B9408EF84B508AF84B408BF85A0002985F
:1017EC0092F82F54059A41EA0C0192F8966390F8FE
:1017FC002F0489F85A1003990A90029691F82F0435
:10180C0092F82F64049A0B9092F8967392F82F0426
:10181C00079A93F82F4492F896C30D96CDF80CC006
:10182C0092F82FC4069ACDF838C092F8966392F8C5
:10183C002F34099A92F896C3CDF810C092F82FC4A1
:10184C00089ACDF844C092F896C392F82F241099B8
:10185C00099221EAE17210920C9A0A9901320C92C7
:10186C00019A41FA02F205920B99019A11410691E3
:10187C0000998D408C400299114101910D991141B3
:10188C000791009988408F400399114103910E995B
:10189C0011410891009906FA01F102910099049EF8
:1018AC008B40194613461641119A04961A41099E0B
:1018BC00009B0CFA03FC06FA03F39DF840601343FB
:1018CC0009969DF830600096059E3543069E34437C
:1018DC00019E3743079E88F85A7006430196DDE94E
:1018EC000206304306460898019A014304988EF884
:1018FC005A604CEA000C8AF85AC0099E8BF8695061
:10190C0089F8694088F869208EF8691000998AF87E
:10191C006930B14212D81A4B0F9C1955194A1A4901
:10192C00137809780133DBB29942137003D1002389
:10193C00164913700B601BB0BDE8F08F0023104AE2
:10194C000F995354EAE7104A20701378013313703F
:10195C00F9E482423FF4F5AC84423FF4F2AC002649
:10196C00094C1E7022782870531C2370EBE48242C1
:10197C003FF4E7AC044A2870137801331370E2E4A7
:10198C009C0500209805002097050020A00500204C
:10199C00002238B51F4B204CC3E90022C3E90222B8
:1019AC00C3E90422C3E90622C3E90822C3E90A22D7
:1019BC00C3E90C22C3E90E22C3E91022C3E91222A7
:1019CC00C3E91422C3E91622C3E91822C3E91A2277
:1019DC00C3E91C2204F59965992220460021144480
:1019EC0003F0F7FAAC42F7D10023FF2201200B4998
:1019FC000B4D0B600B4C0C492B7023700B808B70B8
:101A0C000A4D0B4C0B490C4B2A7022700A70187043
:101A1C0038BD00BF48000020C0000020A0050020F9
:101A2C0098050020970500209C050020060000204A
:101A3C00070000200800002005000020F0B5144B22
:101A4C0040261B78D025002B0CBF2B272D27A1243B
:101A5C000020104A104B1178A3FB01C2D2085FFA88
:101A6C0082FCA3FB0CE3DB0802EB820203EB830397
:101A7C00A1EB4201ACEB4303084A303330315370D5
:101A8C0091701770D670157154719071F0BD00BFC4
:101A9C00AF050020AE050020CDCCCCCCF00600204C
:101AAC002DE9F04F4FF0000A484B494A1B78494842
:101ABC0049490578A2FB0306F60806EB860EA3EB54
:101ACC004E03A2FB05E991F800C04449A2FB0CE8C7
:101ADC000F7843EA06164249424B4FEAD90B0BEBFF
:101AEC008B090C785E70A5EB4905A2FB076E3E498D
:101AFC0045EA0B194FEAD808087883F802903B495D
:101B0C0008EB8809A2FB0456ACEB490C09784FEAA8
:101B1C00DE0E4CEA081C83F800A083F803C0A2FB7D
:101B2C0000A50EEB8E0CA2FB01A2A7EB4C0747EA1B
:101B3C000E17F6081F7106EB8607ED08A4EB470499
:101B4C00D20844EA061605EB8504A0EB440002EB30
:101B5C008204ADB0A1EB440141EA021440EA051540
:101B6C00542202A822499D71DC715E711C464FF40F
:101B7C007A7503F023FA02E002A802F05DFA0095F0
:101B8C0001232246D02102A800F068FF0028F3D1DF
:101B9C00174C204602F04CFA2028FAD117A85422F0
:101BAC00134903F00BFA4FF47A750E4C02E017A8A8
:101BBC0002F042FA009508232246D02117A800F023
:101BCC004DFF0028F3D12DB0BDE8F08FAB05002000
:101BDC00CDCCCCCCA8050020A7050020A605002064
:101BEC00A5050020F8060020A9050020B00500205E
:101BFC00100600200023F0B5434CADB002A85422CF
:101C0C0042492370264603F0D9F94FF47A7502E065
:101C1C0002A802F011FA009501233246D02102A845
:101C2C0000F01CFF0028F3D1384D284602F000FAD2
:101C3C002028FAD117A85422344903F0BFF94FF4E5
:101C4C007A76314D02E017A802F0F6F900961223CD
:101C5C002A46D02117A801F06FF80028F3D1237879
:101C6C0065781F092A4803F00F0307EB870703EB7E
:101C7C0047070770280994F802C000EB800005F0B4
:101C8C000F0505EB4005234894F803E021796279B0
:101C9C00A379667C4FEA1C1405701F4F04EB84007B
:101CAC000CF00F0404EB40043C700C0904EB8404AE
:101CBC0001F00F014FEA1E1001EB4401140900EB77
:101CCC00800504EB84040EF00F0002F00F0200EB11
:101CDC00450002EB4402114D1C0904EB840403F093
:101CEC000F0303EB440328700D4C0E482170027057
:101CFC000D4C0E490E4A06F07F0026F07F0623702D
:101D0C00087016702DB0F0BDF806002010060020EB
:101D1C00AB050020A8050020A7050020A605002083
:101D2C00A5050020A9050020B0050020AE05002067
:101D3C00AF05002030B400250C4A0D4B11780D482E
:101D4C00A3FB0142D208D4B2A3FB04C3DB0802EB11
:101D5C00820203EB8303A4EB4303A1EB4202303377
:101D6C00303203704270857030BC7047A80500207B
:101D7C00CDCCCCCCE406002030B400250C4A0D4B65
:101D8C0011780D48A3FB0142D208D4B2A3FB04C3C3
:101D9C00DB0802EB820203EB8303A4EB4303A1EB0E
:101DAC0042023033303203704270857030BC704761
:101DBC00A7050020CDCCCCCCE406002030B4002507
:101DCC000C4A0D4B11780D48A3FB0142D208D4B23A
:101DDC00A3FB04C3DB0802EB820203EB8303A4EB3B
:101DEC004303A1EB420230333032037042708570F2
:101DFC0030BC7047A6050020CDCCCCCCE40600202E
:101E0C00174B1B78013B062B28D8DFE803F0090E93
:101E1C0013181D2204000722124B13481A70704726
:101E2C000B22104B11481A7070470B220D4B1048A7
:101E3C001A70704707220B4B0E481A707047052218
:101E4C00084B0D481A7070470722064B0B481A7046
:101E5C0070470722034B0A481A70704700207047DE
:101E6C00A6050020AC05002030520008C451000823
:101E7C00DC510008F451000804520008105200080C
:101E8C002052000830B400250C4A0D4B11780D4837
:101E9C00A3FB0142D208D4B2A3FB04C3DB0802EBC0
:101EAC00820203EB8303A4EB4303A1EB4202303326
:101EBC00303203704270857030BC7047A50500202D
:101ECC00CDCCCCCCE406002030B400250C4A0D4B14
:101EDC0011780D48A3FB0142D208D4B2A3FB04C372
:101EEC00DB0802EB820203EB8303A4EB4303A1EBBD
:101EFC0042023033303203704270857030BC704710
:101F0C00A9050020CDCCCCCCE4060020254B1B78B9
:101F1C00013B0B2B43D8DFE803F00B10151A1F24E1
:101F2C00292E33383D0607221F4B20481A70704764
:101F3C0006221D4B1E481A70704707221A4B1D486B
:101F4C001A7070470422184B1B481A7070470622EF
:101F5C00154B1A481A7070470322134B18481A7005
:101F6C0070470422104B17481A70704704220E4B0E
:101F7C0015481A70704706220B4B14481A7070479C
:101F8C000822094B12481A7070470722064B114859
:101F9C001A7070470622044B0F481A7070470020C5
:101FAC00704700BFA9050020AD050020E0520008D5
:101FBC004052000850520008605200086C52000851
:101FCC007C52000884520008905200089C52000871
:101FDC00AC520008C0520008D052000830B40025A2
:101FEC000C4A0D4B11780D48A3FB0142D208D4B218
:101FFC00A3FB04C3DB0802EB820203EB8303A4EB19
:10200C004303A1EB420230333032037042708570CF
:10201C0030BC7047B0050020CDCCCCCCE406002001
:10202C0070B43025322600240D4A0E4B1178A3FBD8
:10203C000102D208D0B2A3FB00C3DB0802EB820280
:10204C0003EB8303A1EB4202A0EB430306492B44B1
:10205C002A448B70CA700E704D700C7170BC704736
:10206C00B0050020CDCCCCCCE8060020014B187874
:10207C00704700BFAC050020014B1878704700BFBB
:10208C00AD05002010B5534B1B780A2B28D0032B21
:10209C0009D00B2B40F090804F4B1B78152B43D065
:1020AC001B2B41D010BD4C4B1B78152B46D0162B3F
:1020BC004ED0172B47D0192B54D01A2B77D01B2B63
:1020CC003CD01C2B3FD01D2BECD1444B1B781A2B36
:1020DC00E8D1434B1A780A2A59D00B2A1BD810BDC9
:1020EC003D4B1B78142B24D0162B4BD0172B16D012
:1020FC00182B32D0192B55D01A2B1AD01C2B0ED0D2
:10210C001D2BCFD1354B1B781D2BCBD1344B1A78D3
:10211C000B2A2CD0C6D90022324B1A7010BD2F4B73
:10212C001B781E2BF2D010BD2C4B1B78012BEDD045
:10213C0010BD2A4B1B781A2BE8D010BD274B1B78EF
:10214C001D2BC6D010BD254B1B781B2BC1D010BD31
:10215C00224B1B781C2BBCD010BD204B1B781C2B8E
:10216C00D4D010BD1D4B1B781F2BB2D010BD1D4CF5
:10217C002278002A96D10A221A70FFF791FC0123CB
:10218C00237010BD154B1B781F2BBFD010BD154CE9
:10219C002278002A86D10B221A70FFF781FC0123CA
:1021AC00237010BD0D4B1B781B2BAFD010BD0B4BF0
:1021BC001B781E2B8DD010BD042B7FF473AF064BF8
:1021CC001B78182B7FF46EAF044B1B78012B80D03F
:1021DC0010BD00BFA9050020B0050020A5050020FA
:1021EC00A7050020AA0500200E4B82B09A690E4963
:1021FC0042F001029A619A6902F001020092009A7F
:10220C00DA6942F08052DA61DB6903F080530193A2
:10221C00019B4B6823F0E06343F000734B6002B00A
:10222C00704700BF001002400000014070B5002450
:10223C0002681D4B86B09A42CDE90244CDE90444B4
:10224C0001D006B070BD4FF4406003221226174D2A
:10225C0002A9AB6943F00803AB61AB69029003F0D0
:10226C00080300931248009B0592039600F034FA81
:10227C00EB69224643F48003EB61EB69214603F4DE
:10228C00800301932120019B00F07AF9212000F0BA
:10229C00ADF922462146222000F072F9222000F0EE
:1022AC00A5F906B070BD00BF0058004000100240F8
:1022BC00000C014070B5002402681A4B86B09A429B
:1022CC00CDE90244CDE9044401D006B070BD4FF411
:1022DC0020410226032503F5EC33DA69124842F457
:1022EC008042DA61DA6902F480420092009A9A69BB
:1022FC0042F008029A619B69029103F00803019372
:10230C0002A9019B0396059500F0E6F94FF4804372
:10231C0002A90548CDE90344029300F0DDF906B0AB
:10232C0070BD00BF00380040000C014010B50368C0
:10233C00154A82B0934204D0B3F1804F0DD002B055
:10234C0010BD124B9A6942F400629A619B6903F4C6
:10235C0000630093009B02B010BD002203F5043310
:10236C00DC69114644F00104DC61DB691C2003F0DC
:10237C0001030193019B00F003F91C2002B0BDE89E
:10238C00104000F033B900BF002C01400010024097
:10239C00002330B50168124A87B09142CDE902336F
:1023AC00CDE9043301D007B030BD4FF48070022565
:1023BC00032403F1804303F504339A6902A942F024
:1023CC0004029A619B69029003F00403019305488F
:1023DC00019B0395059400F07FF907B030BD00BF59
:1023EC00002C014000080140704700BFFEE700BF11
:1023FC00FEE700BFFEE700BFFEE700BF704700BF6F
:10240C00704700BF704700BF00F096B8014802F05B
:10241C00B7BC00BFA4060020014800F04FBF00BFAE
:10242C0010060020014801F0A3BC00BF10060020DC
:10243C0030B44FF41F054FF000640E4B0E4A196870
:10244C000E4841F00101196059680A405A601A6837
:10245C0022F0847222F480321A601A6822F48022EC
:10246C001A605A6822F4FE025A609D60846030BC87
:10247C00704700BF001002400000FFF800ED00E0C4
:10248C00002103E00B4B5B58435004310A480B4BC3
:10249C0042189A42F6D30A4A02E0002342F8043B5F
:1024AC00084B9A42F9D3FFF7C3FF02F063FDFEF726
:1024BC005DF9704710530008000000201800002040
:1024CC001800002010070020FEE7000038B54FF47C
:1024DC007A730D490D4A09781268B3FBF1F305467E
:1024EC00B2FBF3F000F090F808B90F2D01D90120E0
:1024FC0038BD0446024629464FF0FF3000F040F844
:10250C00034B20461D6038BD100000200C0000203D
:10251C0014000020074A08B51368032043F0100389
:10252C00136000F01BF80020FFF7D0FFFFF75CFEF4
:10253C00002008BD00200240034A044B11681B78A0
:10254C000B441360704700BF0C07002010000020E4
:10255C00014B1868704700BF0C0700204FF6FF01B5
:10256C00064A0002D36800F4E0600B4043F0BF63FE
:10257C0043F400330343D360704700BF00ED00E029
:10258C00184B30B4DB68C3F30223C3F10705042DE9
:10259C0003F1040428BF0425062C19D94FF0FF348D
:1025AC00033B9C4022EA04044FF0FF32AA4021EA8C
:1025BC00020101FA03F2224312010028D2B20ADB13
:1025CC0000F1604000F5614080F8002330BC70479A
:1025DC0000242346E8E7044B00F00F0003441A766E
:1025EC0030BC704700ED00E0FCEC00E0002807DB9D
:1025FC00012300F01F01034A8B40400942F82030B0
:10260C00704700BF00E100E00138B0F1807F0DD2CF
:10261C0030B4F02500220721054B064C586084F895
:10262C002350104630BC9A601960704701207047E7
:10263C0010E000E000ED00E038B590F82130022BFE
:10264C0004D0042201248263204638BD03681D494E
:10265C001A688B4222F00E021A601A6822F00102EC
:10266C001A6021D0184A93421CD0143293421DD0C8
:10267C00143293421DD0143293421DD01432934223
:10268C000CBF4FF480134FF08073012100240F4DC9
:10269C00426B6B6080F8211080F820407AB1904733
:1026AC00204638BD1023F0E70123EEE74FF480738A
:1026BC00EBE74FF48053E8E74FF48033E5E714463B
:1026CC00C2E700BF080002401C00024000000240AC
:1026DC0090F82100704700BF0A68002A00F0DB80E8
:1026EC002DE9F04F4FF0000A85B05546DFF8D0C108
:1026FC00DFF8D0E16D4FDFF8D08103E0013532FA1D
:10270C0005F378D00123AB4002EA0304A342F5D1D0
:10271C004A68122A00F09E8000F28780022A00F09C
:10272C009D807CD9032A69D0112A02D1CB6803F190
:10273C00040AFF2C66D881460368AA000F2606FA05
:10274C0002FB23EA0B030AFA02F21343C9F8003026
:10275C004A68D30061D5DCF8189025F0030349F0E2
:10276C000109CCF81890DCF8189003F1804309F0BB
:10277C000109CDF80C9003F5803305F00309DDF861
:10278C000CB04FEA8909D3F808B006FA09F62BEA1F
:10279C0006067045019611D0404563D0444EB042B8
:1027AC007AD0444EB0420CBF4FF0030B4FF0040BE9
:1027BC00019E0BFA09F946EA090601969E603B68F0
:1027CC00D6034CBF2343A3433B607B6896034CBFAB
:1027DC002343A3437B60BB68D6024CBF2343A34374
:1027EC00BB609202FB6815D51C43FC600A6801357E
:1027FC0032FA05F386D105B0BDE8F08FFF2C4FF00F
:10280C00000A98D905F18042083A4368920000F119
:10281C00040993E723EA0404FC600A686EE7A2B19A
:10282C00012A86D1D1F80CA083E7234EB2420CD0FA
:10283C0020D9224EB24208D006F58036B24204D0DE
:10284C00A6F58016B2427FF474AF8A68E2B94FF0F5
:10285C00040A6EE7CB6803F10C0A6AE7CB6803F154
:10286C00080A66E74FF0010B0BFA09F946EA09066C
:10287C000196A3E7A6F58016B242E6D006F580369F
:10288C00B2427FF456AFE0E7012A0CBF036143610B
:10289C004FF0080A4DE770474FF0020B019E0BFA00
:1028AC0009F946EA0906019688E700BF00040140D1
:1028BC0000100140001401400000211000003110F4
:1028CC000010024000080140000C014083681942CE
:1028DC0014BF01200020704702B909040161704740
:1028EC00C3680B4214BF416101617047002800F0BE
:1028FC009780F8B590F83D30044603F0FF02002BAA
:10290C0000F087802423226884F83D30136823F07C
:10291C000103136001F056FE62684B4B9A424BD890
:10292C004A4B98427AD9431E5200B3FBF2F2484903
:10293C002368A1FB00105968800C21F03F01014372
:10294C005960196A013021F03F0108431862501C8C
:10295C00C0F30B00042838BF0420D96921F44F417F
:10296C0021F0FF01002520260843D8611968D4E91D
:10297C00072021F0C00102430A431A609968D4E988
:10298C00030221F4034121F0FF0102430A439A6040
:10299C00D968D4E9052021F0FF0102430A43DA602B
:1029AC001A68284642F001021A60256484F83D60DA
:1029BC00256384F83E50F8BD264B98422ED94FF42F
:1029CC009671234D2368A5FB0065AD0C01FB05F149
:1029DC005E68214F26F03F06A7FB017135435D6011
:1029EC001D6A890925F03F05013129431962D9690E
:1029FC00A56821F44F41013821F0FF0195B902EB94
:102A0C004202B0FBF2F00130C0F30B00C0B9012060
:102A1C00A8E780F83C20FFF709FC73E70120F8BD1C
:102A2C000120704702EB820202EB8202B0FBF2F053
:102A3C000130C0F30B000028E9D040F4404091E78E
:102A4C0040F400408EE700BFA08601007F841E008A
:102A5C0083DE1B43FF083D00D34D62102DE9F04788
:102A6C00044682B099460F4690460A9DFFF770FDCA
:102A7C0094F83D30202B03D0022002B0BDE8F08743
:102A8C00064605E0FFF764FD801B192800F2CB8099
:102A9C0023689A69D24312F0020AF3D094F83C20CE
:102AAC00012AE9D001211A6884F83C10D20702D41B
:102ABC001A680A431A6000214FF0210C10201A6882
:102ACC0022F400621A609B4A84F83DC084F83E00F0
:102ADC002164A4F82A90618DE262E26AC4F8248031
:102AEC00082A218570D0012A6ED012F5803F6BD058
:102AFC00226B122A68D0681C40F089805A69D10771
:102B0C00FCD52269B2F5804F40F0C08007F0FE077B
:102B1C001F616F1C04D0E0E05A69510500F1A080E0
:102B2C005A699007F8D5002201925A6901929A6964
:102B3C000192019A228D002A00F0DF80681C03D0DC
:102B4C0047E05A6952052AD45A691106F9D5676AC1
:102B5C00B4F828C0384610F8012B0CF1FF311A617B
:102B6C00628D89B2013A92B262855A6960625007ED
:102B7C0021850CD559B17A78ACF1020C1A61628DB1
:102B8C000237013A92B2A4F828C0676262856F1CC2
:102B9C002ED15A695007CDD45A695105F9D5002266
:102BAC006FF4806020215861226384F83D1084F812
:102BBC003E20236C84F83C2043F004032364236CF4
:102BCC00042B75D0012058E71A6842F480721A6001
:102BDC0091E75A691706BAD45A695705DFD4FFF73B
:102BEC00B7FC801B85426AD3002D68D02368A5E70B
:102BFC005A6952079ED45A695205D0D4FFF7A8FCE3
:102C0C00801B85425BD3002D59D02368BFE75A69DE
:102C1C00D2073FF576AFFFF79BFC801B854210D3A4
:102C2C007DB1236867E72023C4F830A084F83D30D9
:102C3C0084F83EA0236C84F83CA043F0200323646A
:102C4C001AE700222023226384F83D3084F83E20CA
:102C5C00236C84F83C2043F02003236401200CE710
:102C6C00002220206FF48065196841F4007119600E
:102C7C005D61226384F83D0084F83E20236C84F867
:102C8C003C2043F0040323640120F6E6FA1102F021
:102C9C00060242F0F0021A61691C03D03AE05A694C
:102CAC005005DDD45A691207F9D5FFB21F6130E720
:102CBC0022680120136843F400731360DDE60022E0
:102CCC002023226384F83D3084F83E20236C84F862
:102CDC003C2043F02003236471E75A6992073FF5C7
:102CEC0022AF5A695205BBD4FFF732FC801B8542D8
:102CFC00A7D3002DA5D023680BE720251968104613
:102D0C0041F40071196084F83D5084F83C2084F83B
:102D1C003E20B2E65A691107C7D45A6950059FD4B0
:102D2C00FFF716FC801B85428BD3002D89D02368BE
:102D3C00B2E700BF0000FFFF2DE9F047044686B064
:102D4C0099460F4690460E9DFFF702FC94F83D30D5
:102D5C00202B03D0022006B0BDE8F087064605E024
:102D6C00FFF7F6FB801B192800F29180226893690B
:102D7C00DB4313F0020AF3D094F83C30012BE9D07A
:102D8C000121136884F83C10D80702D413680B4354
:102D9C001360102000214FF0220C136823F4006301
:102DAC001360954B84F83DC084F83E002164A4F870
:102DBC002A90608DE362E16A1368082943F480630A
:102DCC00C4F824802085136035D0012933D011F547
:102DDC00803F30D0236B112B2DD0691C30D153691F
:102DEC00DB07FCD52369B3F5804F40F0D38047F067
:102DFC000103DBB21361691C03D0B0E153695F05B9
:102E0C0053D453699B07F9D5238D002B63D10193C0
:102E1C005369019393690193019B136843F4007305
:102E2C00136000232022184684F83D2084F83C309F
:102E3C0084F83E308FE7136843F480731360CCE75B
:102E4C005369D807CED4FFF783FB801B85420DD383
:102E5C0065B12268C1E723685A69570600F11781EA
:102E6C005A69D00600F16381FFF772FB0022202320
:102E7C000120226384F83D3084F83E20236C84F8D2
:102E8C003C2043F02003236406B0BDE8F0872023E8
:102E9C00C4F830A084F83D3084F83EA0236C84F84C
:102EAC003CA043F02003236454E7002120206FF45E
:102EBC008065136843F4007313605561216384F8D3
:102ECC003D0084F83E10236C84F83C1043F004035E
:102EDC00236401203FE7012B00F0B680022B00F0A9
:102EEC0064810020116841F4806111600490516983
:102EFC00049192690492049A002B92D0032B00F255
:102F0C00B780012B00F00081022B00F083806B1C3A
:102F1C00226840F0DD8053695F07FCD5136823F409
:102F2C008063136072B62268636A12691A70638DCB
:102F3C00616A228D013B0131013A9BB261622285AB
:102F4C006385691C226840F0D18053695B07FCD50E
:102F5C001368616A43F40073136013690B70638D1B
:102F6C00616A228D013B9BB20131013A638561623A
:102F7C00228562B62268636A12691A70628D238D8B
:102F8C00616A013A013B013192B29BB26162628586
:102F9C002385B1E74FEAE71808F0060848F0F0037C
:102FAC0013616B1C04D0EDE0536959053FF57DAFFF
:102FBC0053691807F8D5FFB21761691C04D008E1F2
:102FCC0053695F053FF571AF53699B07F8D5002333
:102FDC0005935369059393690593059B136843F413
:102FEC0080731360691C40F007815369DB07FCD5C3
:102FFC0048F0F1031361FEE60000FFFF53695A0726
:10300C000ED4FFF7A5FA801B8542FFF42FAF002DDD
:10301C003FF42CAF681C2268F0D153695907FCD5DA
:10302C0072B62368616A1A6842F400721A601B69EE
:10303C000B70638D616A228D013B0131013A9BB2A9
:10304C0061622285638594E7136823F480631360BF
:10305C0072B60022236802925A6902929A6902920D
:10306C00029A1A6842F400721A6062B6238D43E722
:10307C004DB9F0E65A69D20659D4FFF769FA801BAC
:10308C008542FFF4F3AE23685A695106F2D51A69EA
:10309C00636A1A70628D2168013A92B2238D62853F
:1030AC004869626A013B9BB2571C400723856762E3
:1030BC007FF522AF0B695370238D628D616A013BE2
:1030CC00013A9BB292B2013123856285616213E7AA
:1030DC00536958073FF522AFFFF73AFA801B854238
:1030EC00FFF4C4AE002D7FF412AFBFE653695F0747
:1030FC003FF52EAFFFF72CFA801B8542FFF4B6AEDE
:10310C00002D7FF41EAFB1E64DB922E05A69D2060C
:10311C000DD4FFF71DFA801B8542FFF4A7AE236880
:10312C005A695106F2D51A69636A1A70C4E76FF0CE
:10313C0010000022202158610120226384F83D10E8
:10314C0084F83E20236C84F83C20236406B0BDE850
:10315C00F08723685A6957067FF582AEE3E7536917
:10316C0098073FF551AE536958053FF59EAEFFF7F2
:10317C00EFF9801B8542FFF479AE002D3FF476AE5B
:10318C00226838E653691B073FF515AF536959059B
:10319C003FF58BAEFFF7DCF9801B8542FFF466AE82
:1031AC00002D3FF463AE2268FBE6136843F4006322
:1031BC00136072B60022236803925A6903929A69CB
:1031CC000392039A1A6822F480621A6062B6238D05
:1031DC0092E6536998073FF5FAAE536958053FF5E7
:1031EC0064AEFFF7B5F9801B8542FFF43FAE002DAE
:1031FC003FF43CAE2268E0E65369DF073FF5F8AEDA
:10320C00FFF7A6F9801B8542FFF430AE002D3FF48A
:10321C002DAE2268E6E600BF704700BF704700BFC6
:10322C00704700BF704700BF704700BF704700BFBA
:10323C00704700BF704700BF704700BF704700BFAA
:10324C000022436A70B5D3E90D65196893F83D0007
:10325C000C68B26224F48064AA620C605A850C6813
:10326C00726324F001046A630C6093F83D40602C97
:10327C0019D0C0B200F02800282808D0202183F8EB
:10328C003D1083F83E201846FFF7D6FF70BD0C6842
:10329C0044F001040C600C6844F480640C601A6304
:1032AC0083F83D00EFE72021184683F83D1083F8A2
:1032BC003E201A64FFF7C2FF70BD00BF70B5044614
:1032CC0003688CB05868E56A94F83E2094F83D1079
:1032DC00D2B2102A22D0402A20D0226CC9B2002AA5
:1032EC0000F0CC8000265A69C2F34005002D00F096
:1032FC008980850540F18B80226C02B19E6994F81F
:10330C003D2002F02802282A00F044826FF00201CE
:10331C000022596184F83C200CB070BD99695A693F
:10332C00D60749D4B5F52A0FF6D0B5F12A4FF3D00C
:10333C00160740F1A980850500F11D8211F0040FDC
:10334C00596800F00E810905E6D41606C2F3800117
:10335C0040F1B081450540F1AD81002940F0AD81CF
:10336C0094F83D20208D94F83E10D2B2C9B2E56A93
:10337C00002840F08783212A00F02B844029CBD1F0
:10338C00222AC9D1628D92B2002A00F03D8494F8B1
:10339C003E20402A40F0C580226D002A40F0BD84BA
:1033AC00E26C012AA26C00F0CA84C2F307221A61F3
:1033BC00236D01332365AFE7850562D5E26AB2F56B
:1033CC002A0F00F0FB81E26AB2F12A4F04BF0822F7
:1033DC00E26294F83E20402A00F0F3812269B2F5B3
:1033EC00804F00F0B281226D002A00F0F181226D35
:1033FC00012A91D1626CD21102F0060242F0F10264
:10340C001A6189E7D60602D5860500F1D78001F04E
:10341C00F7012129C2F380054ED0510640F18B8073
:10342C00420540F18880002D40F0888094F83D10D2
:10343C00628DC9B292B2002A3FF46EAF1A69636A08
:10344C001A70638D626A013B9BB26385638D013296
:10345C009BB26262002B7FF45FAF2A297FF45CAFD2
:10346C002225282122682046536823F48063536068
:10347C00256384F83D10FFF7D5FE4DE79E695A6928
:10348C0032E715073FF55AAF96077FF557AF85051D
:10349C007FF554AF94F83E20E06A256B94F83D100C
:1034AC00D2B2222900F0228200220A925A690A9290
:1034BC009B690A930A9B2FE7120627D5460525D54B
:1034CC003DBB94F83D00628DC0B292B2002A3FF42D
:1034DC0023AF656A15F8012B1A61628D6562013A9A
:1034EC0092B26285628D92B2002A7FF415AF2928C0
:1034FC007FF412AF28255A68204622F480625A6065
:10350C00216384F83D50FFF78BFE05E7002D3FF457
:10351C0003AF80057FF500AF628D92B2002A3FF4B5
:10352C00FBAE626A12F8011B1961638D6262013B8A
:10353C009BB26385F0E6002D3FF4EEAE86057FF579
:10354C00EBAE628D92B2002A3FF4E6AE1A69636A62
:10355C001A70638D626A013B9BB2013263856262B1
:10356C00DAE60E053FF5D8AE5506C2F3800140F100
:10357C00D280420540F1CF80002940F0CF8094F8F2
:10358C003D20222A7FF4C8AE628D92B2032A40F20B
:10359C00F3821A69636A1A70638D626A013B9BB28B
:1035AC006385638D01329BB2032B62627FF4B4AEF0
:1035BC002268536823F480635360ADE694F83D6051
:1035CC005A68F6B222F4E0625A600B955A690B9273
:1035DC001A6842F001021A600B9A1A6822F480628F
:1035EC001A605A68110522D506F0F702222A00F05B
:1035FC005B81606B0268526892B26285628D92B296
:10360C001AB1226C42F0040222645A6822F400625D
:10361C005A60FFF75DF8012809D0636BA04A184681
:10362C005A63FFF709F810B1606B436B9847638DD1
:10363C009BB213B323685A6952070AD51A69636A95
:10364C001A70628D636A013A591C92B223686285C2
:10365C0061625A69550609D51A69636A1A70638DD5
:10366C00626A013B9BB2013263856262638D9BB2DD
:10367C001BB1236C43F004032364236C002B40F038
:10368C00B5802A2E00F0658194F83D30282B00F08F
:10369C006881236B222B02D0222E7FF43DAE0023B7
:1036AC0020222363204684F83D2084F83E30FFF727
:1036BC00B9FD31E600293FF42FAE82057FF52CAE23
:1036CC00E16A94F83D20212A7FF426AE628D92B2F5
:1036DC00002A7FF426AF082905D0202903D011F544
:1036EC00803F40F0F98200222020596821F4E061EB
:1036FC005960196841F400711960226384F83D0027
:10370C0094F83E302046402B84F83E2000F0B982DD
:10371C00FFF782FD00E600293FF4FEAD86057FF53C
:10372C00FBADE06A628D616A92B2042A00F05F819F
:10373C00628D92B2032A00F06181628D92B2022AEC
:10374C0000F0DA811B690B7003E794F83D20212A05
:10375C00626C16BF42F0010202F0FE02D2B21A6194
:10376C00626B002A00F0F080926A72B15A6842F4DF
:10377C0000625A60D0E5626C616BD2B21A610029AA
:10378C0000F089808A6A002AF0D1A26B926A002A22
:10379C00ECD1C1E55A686FEA960122F480625A6056
:1037AC0033064FF0000301F0010154BFA289228BB4
:1037BC0084F83C302046FFF737FDADE50122E2628C
:1037CC0007E6226D62B9626C02F0FE021A61A3E593
:1037DC00626CD21102F0060242F0F0021A619BE513
:1037EC00626C42F00102D2B21A6195E594F83D2068
:1037FC0094F83E10D2B21029236800F0C48002F075
:10380C002801282900F0BA805968090504D4602AD7
:10381C0002D0202284F83D200022226384F83E202E
:10382C005A6812F400627ED0616B5A6891F82100DC
:10383C0022F4006201285A6000F00581184B0846FA
:10384C004B63FEF7F9FE50B120252268606B1368BC
:10385C00416B23F00103136084F83D50884794F8C2
:10386C003D30226CDBB251077FF556AD282B7FF42F
:10387C0053AD0022202521680A4E4B68204623F4C4
:10388C00E0634B60E662226384F83D5084F83E208E
:10389C00FFF7CCFC40E5A26B002A7FF473AF3BE54D
:1038AC004D3200080000FFFFA06B0268526892B214
:1038BC006285628D92B21AB1226C42F004022264CB
:1038CC005A6822F400625A60FEF702FF01283FF4A6
:1038DC00AEAEA36BA44A18465A63FEF7ADFE0028A1
:1038EC003FF4A5AEA06B436B9847A0E6216D11B9D0
:1038FC00402A00F0CB80226D22B92169B1F5404FEE
:10390C0000F0CB80628D92B2002A48D102925A69A3
:10391C0002929A690292029A1A6842F400721A6030
:10392C0000232365F8E494F83D10602975D05A699A
:10393C00500605D51A69636A1A70636A01336362AB
:10394C002046FFF779FC8AE7A16B00297FF40CAFC6
:10395C00E2E428222363204684F83D20FFF762FC32
:10396C0092E60023202281492046E162236384F8F9
:10397C003D2084F83E30FFF759FCCDE40022226351
:10398C0084F83D104CE7222A7FF439AF1A6822F4F0
:10399C0000621A605A6810057FF53BAF3CE7628DF8
:1039AC0092B2012A00F08780628D92B2022A00F056
:1039BC0031811A6842F480621A605A6815050ED576
:1039CC0010F5803F07D001381F2808D8684A22FA22
:1039DC0000F0C00703D55A6842F480525A600022A6
:1039EC0009925A6909929B690993099B98E75A684D
:1039FC0022F480625A601B690B70AAE55A6804288D
:103A0C0022F480625A603FF49DAE02283FF49AAED5
:103A1C001A6822F480621A6094E6202184F83D1022
:103A2C0022645A69550606D51A69636A1A70626A65
:103A3C002368013262621A68204622F001021A6081
:103A4C00FFF7FCFB0BE7A36B474A18465A63FEF7DC
:103A5C00F3FD00283FF403AF23685A69560606D5D8
:103A6C001A69636A1A70626A2368013262622021E1
:103A7C001A68A06B22F001021A60436B84F83D10A7
:103A8C009847ECE6212A3FF47DAC77E400915A6923
:103A9C0000929B690093009B3EE401925A6901924B
:103AAC009A690192019A1A6842F480721A60236D25
:103ABC000133236530E410F5803F00F0F9800828CD
:103ACC0000F0E680202800F0E380122D00F0DD806D
:103ADC00102805D8274A22FA00F0C10700F11881F6
:103AEC001A6822F480621A60002205925A690592C3
:103AFC009B690593059B13E701281A6865D010286C
:103B0C0063D0042800F0F580022800F0F28042F423
:103B1C0000721A6020201B690B70638D2268013BB8
:103B2C009BB26385636A1269591C61625A70638D1A
:103B3C002168013B9BB263854B68626A23F4407336
:103B4C00013262624B6084F83D0094F83E30402BA9
:103B5C0032D00022122384F83E2020462363FFF744
:103B6C005DFBFFF7D9BB00BF4D3200080000FFFF23
:103B7C008180008014000100E16A02293FF4CCAB83
:103B8C00012A3FF6C9AB20211A68606A22F48062D0
:103B9C001A605A6822F4E0625A601B690370638DE4
:103BAC00626A013B9BB2638584F83D1094F83E3009
:103BBC000132402B6262CCD10023204684F83E3087
:103BCC002363FFF737FBFFF7A7BB22F480621A6071
:103BDC00A0E7082D3FF487AD202D3FF484AD15F5FB
:103BEC00803F3FF480AD1126002520215A682046E5
:103BFC0022F4E0625A60266384F83E5084F83D104B
:103C0C00FFF70AFBFFF788BB5A6822F480625A6000
:103C1C00FFF782BB102823D900211A6842F40062F6
:103C2C001A6007915A6907929A690792079A1A685B
:103C3C0022F480621A605A6812057FF571AE10F595
:103C4C00803F08D001381F283FF66AAE464AC24072
:103C5C00D6077FF565AE5A6842F480525A605FE62B
:103C6C00424AC240D24312F00102D5D1196841F444
:103C7C008061196008925A6908929A690892089AA8
:103C8C00D9E7FFF7D5FAFFF747BB01283FF428AF78
:103C9C0000211A6822F480621A6006915A69069211
:103CAC009A690692069A1A6842F400721A6037E60C
:103CBC001A6822F480621A605A6812F400621CD0EE
:103CCC0000211A6822F480621A6003915A690392E7
:103CDC009B690393039B23E61126202559682046F4
:103CEC0021F4E0615960266384F83E2084F83D504D
:103CFC000EE542F480621A600CE704925A69049251
:103D0C009A690492049A1A6842F400721A6007E6DF
:103D1C001A6842F480621A60E6E6226D012A1BD012
:103D2C00226D022A7FF4F8AA94F83D20222A0DD0A5
:103D3C0094F83D20212A7FF4EFAAFFF7F2BBD2B210
:103D4C001A61236D02332365FFF7E6BA1A6842F451
:103D5C0080721A60FFF7E0BAA26CD2B21A61236DBE
:103D6C0001332365FFF7D8BA81800080140001006D
:103D7C00F8B5036804465D691A46E805C5F34026A4
:103D8C00596872D5080AC7076FD56FF480715961ED
:103D9C00196841F400411960002E75D16E0540F18F
:103DAC00C280012694F83E00628D94F83D102028C4
:103DBC0092B2C9B2276B00F098806FF480625A619E
:103DCC0094F83E2046F00406102A03D11A6842F4F7
:103DDC0000721A601A462B0504D56FF4006346F086
:103DEC0008065361236C1E43266494F83D3094F806
:103DFC003E10DBB210296ED003F02801282965D0C3
:103E0C0051680E0504D4602B02D0202384F83D3079
:103E1C000023236384F83E30536813F4006344D0CA
:103E2C00616B536891F8210023F4006301285360FF
:103E3C0000F096807C4B08464B63FEF7FDFB50B1BF
:103E4C0020252268606B1368416B23F0010313601B
:103E5C0084F83D50884794F83D30226CDBB2520711
:103E6C0002D5282B00F09B80F8BD16B1080AC607B6
:103E7C0019D4C5F380261EB1C805F5D5002691E7E7
:103E8C002805F1D5080A07E003266FF400716F05C9
:103E9C00596187D4290504D5C3079ED4002EE3D0DD
:103EAC0023681A469EE70226EFE794F83D10602936
:103EBC0040D05369590605D5636A12691A70636A52
:103ECC00013363622046FFF7B7F9C4E7002323638D
:103EDC0084F83D10A0E7222B8ED1136823F40063E5
:103EEC00136053681F0590D592E7002A7FF465AFE5
:103EFC0001F0F702212A05D028297FF45EAF212F8B
:103F0C007FF45BAF94F83D20E16AD2B2082958D017
:103F1C00202956D0212A6DD06FF480625A612F056A
:103F2C00BCD5226859E729054FF001063FF555AF7E
:103F3C001A4657E7202184F83D102364536958062C
:103F4C0006D51269636A1A70636A22680133636268
:103F5C001368204623F001031360FFF76FF97AE72B
:103F6C00A36B314A18465A63FEF766FB00283FF4F0
:103F7C0072AF23685A69550606D51A69636A1A70B6
:103F8C00626A23680132626220211A68A06B22F0F7
:103F9C0001021A60436B84F83D1098475BE70022DE
:103FAC0020252168214E4B68204623F4E0634B60AA
:103FBC00E662226384F83D5084F83E20FFF736F920
:103FCC00F8BD282AA6D16FF4806700212020174A5B
:103FDC00E2625A6822F4E0625A605F611A683A4001
:103FEC001A60216384F83D00204684F83E10FFF7E8
:103FFC001DF994E7202700206FF48061DFF82CC0B6
:10400C00C4F82CC0226384F83D7084F83E005A68D2
:10401C00204622F4E0625A6059611A680A401A601C
:10402C00FFF7FEF87BE700BF4D3200080000FFFFF2
:10403C0090F83D00704700BF006C7047002800F0FE
:10404C0055812DE9F041036882B0DD07044635D572
:10405C00A8494A6802F00C02042A00F005814A685B
:10406C0002F00C02082A00F0FB806368B3F5803F75
:10407C0010D0002B00F02081B3F5A02F00F0788138
:10408C009C4B1A6822F480321A601A6822F480223F
:10409C001A6004E0974A136843F480331360FEF708
:1040AC0057FA944D064605E0FEF752FA801B642839
:1040BC0000F2F5802B689A03F6D523689F074DD440
:1040CC001A0722D5A369002B00F0BA8001228A4B73
:1040DC00884D1A60FEF73CFA064605E0FEF738FA02
:1040EC00801B022800F2DB806B6A9B07F6D5834BA2
:1040FC00834A1B68A2FB03235B0A019300BF019B4D
:10410C005A1E0192002BF9D123685D0769D5794BB2
:10411C00DA69D00000F1EC800125DA6942F08052B6
:10412C00DA61DB6903F080530093009B754B1A68CE
:10413C00D10540F1A380E368012B37D0002B00F0B0
:10414C00E780052B6B4B1A6A00F01F8122F00102ED
:10415C001A621A6A22F004021A622CE0654A51684B
:10416C0011F00C0F61D0516801F00C01082959D0E5
:10417C002369002B00F0EB800122634B5D4D1A602C
:10418C00FEF7E6F9064605E0FEF7E2F9801B022889
:10419C0000F285802B689807F6D52B68626923F0AE
:1041AC00F80343EAC2032B60236889E7514A136A78
:1041BC0043F001031362FEF7CBF94E4E804641F2F9
:1041CC00883705E0FEF7C4F9A0EB0800B84266D8C2
:1041DC00336A9B07F6D525B1464AD36923F0805341
:1041EC00D361E069D0B1434D6A6802F00C02082A31
:1041FC0000F0D38002284FF00001444A00F0DE802A
:10420C001160FEF7A5F92C46054604E0FEF7A0F96F
:10421C00401B022843D823689B01F7D4002002B02E
:10422C00BDE8F0815268D603A2D4324A12689507D1
:10423C0039D52269012A36D0012002B0BDE8F081BF
:10424C002D4A2C4D1360FEF783F9064604E0FEF769
:10425C007FF9801B022822D86B6A9F07F7D453E79B
:10426C004A68D0037FF501AF224A126891037FF5AB
:10427C0025AF6268002A7FF421AFDDE71A681E467D
:10428C0042F480721A60FEF763F907463368DA0568
:10429C003FF551AFFEF75CF9C01B6428F6D903203B
:1042AC0002B0BDE8F081134960690A6822F0F80297
:1042BC0042EAC0020A6003E703F1804303F50433CA
:1042CC001A681D4622F480321A601A6822F4802281
:1042DC001A60FEF73DF9064604E0FEF739F9801B3B
:1042EC006428DCD82B689B03F7D4E6E601207047E2
:1042FC0000251BE700100240800442420C00002005
:10430C00D34D6210007000400000424260004242F7
:10431C0003F1804303F504331A6A1E4622F00102AE
:10432C001A621A6A41F2883822F004021A62FEF705
:10433C000FF9074604E0FEF70BF9C01B4045AED859
:10434C00336A9807F7D4002D3FF44BAF44E7344A57
:10435C00344D1360FEF7FCF8064604E0FEF7F8F85F
:10436C00801B02289BD82B689907F7D42368A7E6F3
:10437C0003F18043A3F53C331A6842F480221A609F
:10438C001A6842F480321A6089E642F004021A621A
:10439C001A6A42F001021A620DE701283FF44DAF90
:1043AC006B68226A03F4803191427FF445AF606AF6
:1043BC0003F47013181A18BF01203EE71160FEF7C2
:1043CC00C7F8064605E0FEF7C3F8801B02283FF647
:1043DC0066AF2B689901F6D4226AB2F5803F05D1FD
:1043EC006B68A16823F400330B436B6001250D4B04
:1043FC00606A5968024321F474110B480A435A60ED
:10440C0005601C46FEF7A4F8054605E0FEF7A0F88B
:10441C00401B02283FF643AF23689A01F6D5FDE610
:10442C0000004242001002406000424278B15D4AF6
:10443C00136803F007038B420BD2136823F00703B6
:10444C000B431360136803F007038B4201D0012068
:10445C0070472DE9F041036886B09D0714D55C07C1
:10446C0004D5514C626842F4E06262601A0704D5CC
:10447C004D4C626842F4605262604B4C85686268D5
:10448C0022F0F0022A436260DB0704460D4620D579
:10449C004268454B012A1B686FD0022A7ED09807D0
:1044AC0027D5414E41F28838736823F00303134338
:1044BC007360FEF74DF8074604E0FEF749F8C01BA1
:1044CC00404569D87368626803F00C03B3EB820F44
:1044DC00F3D1344A136803F00703AB420DD91368C8
:1044EC0023F007032B431360136803F00703AB425D
:1044FC0003D0012006B0BDE8F0812368590706D52A
:10450C002949E0684A6822F4E06202434A601A07CB
:10451C0007D5254A2169536823F4605343EAC10344
:10452C00536040F20122214B06ACADF804200FCBB6
:10453C0004E90F001C494A6802F00C03082B1AD13D
:10454C00C2F38343234413F8100CD30318D4184B31
:10455C0003FB00F3144A174852681749C2F30312BD
:10456C00805C164AC34008681360FDF7AFFF00205B
:10457C0006B0BDE8F081124BECE79F0391D4B8E78D
:10458C004A680F4BC2F3404203FB00F3224412F87B
:10459C00142CB3FBF2F3DDE70320ABE79E0180D4D0
:1045AC00A7E700BF0020024000100240085000089E
:1045BC0000093D00F0520008140000200C000020FF
:1045CC0000127A00044B05495B68054AC3F30223C9
:1045DC00CB5C1068D84070470010024000530008B4
:1045EC000C00002000283BD0F8B5002390F85110A7
:1045FC000446836201F0FF0261B31A46D4E9013626
:10460C00022700210125E0683343266903436069D2
:10461C003343E669D4F818C00343206A3343266851
:10462C0084F8517003430CF40070034330684FEA74
:10463C001C4C134320F040000CF00402306033603B
:10464C007260F369084623F40063F361616584F8D2
:10465C005150F8BD80F85020FDF72CFEA26ACDE732
:10466C00012070472DE9F04190F8504082B0012CA8
:10467C005ED01F46012380F85030044616460D4686
:10468C00FDF766FF804694F85100C0B2012809D0AE
:10469C0002200122002384F8512084F8503002B00B
:1046AC00BDE8F081002DF4D0002EF2D000230321C0
:1046BC00A26884F85110B2F5004F63652563E68655
:1046CC00A686A363A387C4E91033E387206803D1CC
:1046DC00036843F48043036003685B062CD5E368EE
:1046EC006268B3F5006F45D0002A6ED12B78037346
:1046FC00E38E226B013B9BB201322068E38622637E
:10470C007E1C0BD028E0236B1B780373E38E226B8B
:10471C00013B9BB20132E38622632068E38E9BB29D
:10472C00002B40D083689D07EDD4FDF711FFF4E713
:10473C00022002B0BDE8F081036843F0400303603F
:10474C00CDE7236B1B780373E38E226B013B9BB28B
:10475C000132E38622632068E38E9BB21BB383682D
:10476C009B07EED4FDF7F4FEA0EB0800B842F2D3A1
:10477C0003208EE7002A76D0012E74D0791C59D1F3
:10478C00E38E9BB27BB183689A0768D5226B32F8B3
:10479C00023BC360E38E2263013B9BB2E386E38E54
:1047AC009BB2002BEFD1791C12D183681A06FCD472
:1047BC00A3682BB90193C368019383680193019B90
:1047CC00606D003018BF012063E7012E98D18DE792
:1047DC0083681B06ECD5FDF7BBFEA0EB08008742F7
:1047EC002068E0D861684268B1F5827F22F0E0026F
:1047FC00A368426040D0A26AB2F5005F07D102689C
:10480C0022F400520260026842F40052026001225B
:10481C002021002584F85120626D84F850500A4301
:10482C0062656165C5E7FDF793FEA0EB0800B84231
:10483C009ED22068E38E9BB2002BB4D083689D0778
:10484C00F1D5226B32F8023BC360E38E2263013B4D
:10485C009BB2E386E38E9BB2002BEFD1A3E7FDF76F
:10486C0077FE20688CE735F8023BC360E38E256346
:10487C00013B9BB2E38681E7B3F5004F02D0B3F561
:10488C00806FB8D1026822F040020260B3E700BF2B
:10489C00002836D090F83D3070B503F0FF02044686
:1048AC000BB302232268204E84F83D30B2421368C9
:1048BC00A569E068616826D0B2F1804F18D0A6F5E2
:1048CC009436B24214D006F58066B24210D023F072
:1048DC0080032B431360D06291620123002053614B
:1048EC0084F83D3070BD80F83C20FDF71FFDD8E703
:1048FC00A66823F070033343266923F440733343D3
:10490C00E5E701207047A66823F07003334326695E
:10491C0023F44073334323F080032B431360D062A2
:10492C00916263691363D8E7002C01400368DA686D
:10493C0042F00102DA609A6802F00702062A03D0FC
:10494C001A6842F001021A6000207047704700BFDD
:10495C00002836D090F83D3070B503F0FF020446C5
:10496C000BB302232268204E84F83D30B242136808
:10497C00A569E068616826D0B2F1804F18D0A6F521
:10498C009436B24214D006F58066B24210D023F0B1
:10499C0080032B431360D06291620123002053618A
:1049AC0084F83D3070BD80F83C20FFF7CFFFD8E78E
:1049BC00A66823F070033343266923F44073334312
:1049CC00E5E701207047A66823F07003334326699E
:1049DC0023F44073334323F080032B431360D062E2
:1049EC00916263691363D8E7002C014001220368CC
:1049FC0001F01F01186A02FA01F120EA01001862A5
:104A0C00186A0A4A0143934219620AD09A6802F062
:104A1C000702062A03D01A6842F001021A6000202D
:104A2C0070475A6C42F400425A64EFE7002C014084
:104A3C0090F83C30012B00F0C580F0B40223012427
:104A4C0080F83D3080F83C400C2A36D8DFE802F084
:104A5C003E353535673535359135353507000368C5
:104A6C008F681D6A0E6825F480551D621A6A6C4D9C
:104A7C00D3F804C0DC6922F4005224F4E644AB42BF
:104A8C0042EA073244EA062404D14D692CF4804CE6
:104A9C004CEA851C4D68C3F804C0DC611D641A62C5
:104AAC00DC690D6944F40064DC61D96921F480612E
:104ABC00D961DA6942EA0522DA610023F0BC0122ED
:104ACC0080F83C3080F83D201846704703688F68AA
:104ADC001D6A0E6825F001051D621A6A504DD3F847
:104AEC0004C09C6922F0020224F07304AB4242EA37
:104AFC00070244EA060476D04D68C3F804C09C61F2
:104B0C005D631A629C690D6944F008049C619969A3
:104B1C0021F0040199619A692A439A61CDE70368EF
:104B2C008F681D6A0E6825F010051D621A6A3C4DCF
:104B3C00D3F804C09C6922F0200224F4E644AB4272
:104B4C0042EA071244EA06245BD04D68C3F804C05D
:104B5C009C619D631A629C690D6944F400649C61BC
:104B6C00996921F4806199619A6942EA05229A61F6
:104B7C00A3E703688F681D6A0E6825F480751D62B3
:104B8C001A6A274DD3F804C0DC6922F4007224F0B1
:104B9C007304AB4242EA072244EA060414D04D687F
:104BAC00C3F804C0DC61DD631A62DC690D6944F092
:104BBC000804DC61D96921F00401D961DA692A435E
:104BCC00DA617AE702207047CE6822F40062D1E9FC
:104BDC0005752CF4405C42EA06223D4322F48062C7
:104BEC004CEA051CDBE7CF6822F00802D1E9055638
:104BFC002CF4407C3A43354322F0040245EA0C0C79
:104C0C007AE7CE6822F08002D1E905752CF4406C6D
:104C1C0042EA06123D4322F040024CEA850C94E72E
:104C2C00002C014090F83C30012B5AD00222F0B4F9
:104C3C000125036880F83D209A680C6822F47F42B5
:104C4C0022F07702402C80F83C509A6074D04AD9FC
:104C5C00602C2DD056D9702C1AD0B4F5005F0ED123
:104C6C00D1E90152CC6899682A4342EA042221F422
:104C7C007F410A439A609A6842F480429A6000230A
:104C8C00F0BC012280F83C3080F83D20184670477B
:104C9C00D1E90152CC6899682A4342EA042221F4F2
:104CAC007F410A439A609A6842F077029A60E6E77D
:104CBC001C6A4D6824F01004CE681C6299691A6A4B
:104CCC0021F4704122F0A00242EA051241EA0631B9
:104CDC0099611A629A6822F0700242F067029A6037
:104CEC00CDE702207047102C04D03DD9202C01D0E8
:104CFC00302CC4D19A6844F0070422F0700214439B
:104D0C009C60BCE7502CBAD11D6A1E6A4C6826F018
:104D1C000106CF681E629A6925F00A0122F0F002A2
:104D2C0042EA071221439A6119629A6822F07002D2
:104D3C0042F057029A60A2E71D6A1E6A4C6826F080
:104D4C000106CF681E629A6925F00A0122F0F00272
:104D5C0042EA071221439A6119629A6822F07002A2
:104D6C0042F047029A608AE7002CC3D087E700BF65
:104D7C00704700BF704700BF704700BF704700BF4F
:104D8C00036810B51A690446910702D5DA689207D0
:104D9C005FD41A69500702D5DA68510746D41A69EC
:104DAC00120702D5DA6810072ED41A69D20602D57A
:104DBC00DA68D00618D41A69D10702D5DA68D20796
:104DCC005DD41A69100602D5DA6811065FD41A6927
:104DDC00520602D5DA68500661D41A69910602D5DA
:104DEC00DA68920643D410BD6FF0100108221961E5
:104DFC00DB69204613F4407F227764D0FFF7BAFFBB
:104E0C00002223682277D6E76FF00801042219618B
:104E1C00DB6920469907227752D1FFF7A9FF20467C
:104E2C00FFF7AAFF002223682277BEE76FF0040188
:104E3C00022219619B69204613F4407F22773CD1F2
:104E4C00FFF796FF2046FFF797FF00222368227793
:104E5C00A5E76FF00201012219619B6902779B079C
:104E6C0025D0FFF787FF00222368227791E76FF0A8
:104E7C0020022046BDE810401A6100F077B86FF0B0
:104E8C00010220461A61FBF737FB236899E76FF0A4
:104E9C00800220461A6100F06BF8236897E76FF0E8
:104EAC00400220461A61FFF769FF236895E7FFF778
:104EBC005FFF2046FFF760FFD5E7FFF75BFFC4E716
:104ECC00FFF758FFAEE7FFF753FF2046FFF754FFFD
:104EDC0096E700BF90F83C20012A1AD00222F0B4C9
:104EEC00034600250126046880F83D206068D1E95E
:104EFC00002720F070011143A268284622F080029E
:104F0C003A436160A26083F83D6083F83C50F0BC8A
:104F1C0070470220704700BF90F83C30012B22D024
:104F2C000246D1E9020310B4002423F44073034376
:104F3C00486823F480630343086823F40063034345
:104F4C00086923F480530343486923F40053034353
:104F5C00C86923F48043116803434B64204682F8EC
:104F6C003C4010BC70470220704700BF704700BF28
:104F7C00704700BF70B500250C4E0D4CA41BA4103F
:104F8C00A54209D100F02EF800250A4E0A4CA41BAC
:104F9C00A410A54205D170BD56F8253098470135AF
:104FAC00EEE756F8253098470135F2E7085300082C
:104FBC0008530008085300080C53000810B5431E92
:104FCC000A44914200D110BD11F8014B03F8014F76
:104FDC00F7E703460244934200D1704703F8011BE4
:104FEC00F9E70000F8B500BFF8BC08BC9E46704756
:0C4FFC00F8B500BFF8BC08BC9E4670472A
:1050080002030405060708090A0B0C0D0E0F101001
:105018003A000000200000002E0000003C000000C4
:105028003E0000000E1E36667E6666007C60607C70
:1050380066667C007C66667C66667C007E60606076
:10504800606060001C3C2C2C2C7E66007E60607CBE
:1050580060607E005A5A3C3C3C5A5A003C66601CD0
:1050680060663C0066666E7E7666660018666E7ED2
:1050780076666600666C7870786C66000E1E36661A
:1050880066666600446C7C54444444006666667EEA
:10509800666666003C66666666663C007E666666B0
:1050A800666666007C6666667C6060003C6660607A
:1050B80060663C007E181818181818006666663E68
:1050C80006663C003C5A5A5A3C18180066663C185A
:1050D8003C6666006C6C6C6C7C7E06006666663EA0
:1050E800060606005A5A5A5A5A7E7E005A5A5A5A80
:1050F8007E7E60006262627A66667A006060607CCA
:1051080066667C00384C063E064C38004E5A5A7A81
:105118005A5A4E003E6666663E36660038444C541F
:10512800644438000C1C3C0C0C0C0C003C66061C3F
:1051380030607E003C66061C06663C000C1C2C6C2D
:105148007E0C0C007E607C0606663C001C30607C91
:1051580066663C007E06060C181818003C66663C1D
:1051680066663C003C66663E060C3800001818006F
:105178000018180000181800181830000000000067
:105188001818300000000000001818000018187ED9
:105198007E1818000000007E7E0000001C36361CB9
:1051A800000000006030180C183060000C183060E7
:1051B80030180C000000000000000000D0B2D0BE83
:1051C800D181D0BAD180D0B5D181D0B5D0BDD18C64
:1051D800D0B50000D0BFD0BED0BDD0B5D0B4D0B50A
:1051E800D0BBD18CD0BDD0B8D0BA0000D0B2D1825B
:1051F800D0BED180D0BDD0B8D0BA0000D181D18086
:10520800D0B5D0B4D0B00000D187D0B5D182D0B25B
:10521800D0B5D180D0B30000D0BFD18FD182D0BD5E
:10522800D0B8D186D0B00000D181D183D0B1D0B16F
:10523800D0BED182D0B00000D18FD0BDD0B2D0B016
:10524800D180D18C00000000D184D0B5D0B2D180FB
:10525800D0B0D0BBD18C0000D0BCD0B0D180D1822E
:1052680000000000D0B0D0BFD180D0B5D0BBD18C69
:1052780000000000D0BCD0B0D0B90000D0B8D18EAA
:10528800D0BDD18C00000000D0B8D18ED0BBD18C5D
:1052980000000000D0B0D0B2D0B3D183D181D18288
:1052A80000000000D181D0B5D0BDD182D18FD0B15E
:1052B800D180D18C00000000D0BED0BAD182D18F6D
:1052C800D0B1D180D18C0000D0BDD0BED18FD0B1AB
:1052D800D180D18C00000000D0B4D0B5D0BAD0B005
:1052E800D0B1D180D18C0000000000000000000087
:1052F8000102030406070809000000000102030474
:045308003101000867
:04530C000D01000887
:10531000010101010101FFFFFF0000000024F40072
:08532000010000001000000074
:040000050800248D3E
:00000001FF
